:020000040800F2
:1000000000000220B9020008A54B0008A74B000819
:10001000A94B0008AB4B0008AD4B000800000000E6
:10002000000000000000000000000000AF4B0008CE
:10003000B14B000800000000B34B0008B54B0008AE
:10004000E5030008E5030008E5030008E5030008F0
:10005000E5030008E50300087B4B0008E503000802
:10006000E5030008E5030008E5030008854B0008E8
:10007000E5030008E5030008E5030008E5030008C0
:10008000954B0008E5030008E5030008E5030008B8
:10009000E5030008E5030008E5030008E5030008A0
:1000A000E5030008E5030008E5030008E503000890
:1000B000E5030008E5030008E5030008E503000880
:1000C000E5030008E5030008E5030008E503000870
:1000D000E5030008E5030008E5030008E503000860
:1000E000E5030008E5030008E5030008E503000850
:1000F000E5030008E5030008E5030008E503000840
:10010000E5030008E5030008E5030008E50300082F
:10011000E5030008E5030008E5030008E50300081F
:10012000E5030008E5030008E5030008E50300080F
:10013000E5030008E5030008E5030008E5030008FF
:10014000E5030008E5030008E5030008E5030008EF
:10015000E5030008E5030008E5030008E5030008DF
:10016000E5030008E5030008E5030008E5030008CF
:10017000E5030008E5030008E503000800000000AF
:10018000E5030008E503000800B583B003F058F963
:10019000384B394A1360394A1360394906E052F83E
:1001A000041B43F8041B9842F9D86146354B994229
:1001B00005D20A684B6801F10C0C8868F3E72E4BF6
:1001C0001A68314B9A4200D0FEE72C4B1A682F4B2D
:1001D0009A42F9D1274B2E4A13602E4A13602E4AB9
:1001E00000E002462D4B9A4209D2104650F8083BD7
:1001F00051689942F5D9002243F8042BF9E7244BC2
:100200001B6813B9234B1B6803B1FEE704F08AFB9C
:10021000694601A802F006FF214C224BE41AA41003
:10022000002504E01F4B53F8253098470135AC42B8
:10023000F8DC1D4C1D4BE41AA410002504E01B4BF8
:1002400053F8253098470135AC42F8DC0099019805
:1002500004F08EFB0546164C164BE41AA41004E07D
:10026000013C144B53F824309847002CF8DC284606
:1002700002F074FEBABADECA00000020E8020020D4
:10028000E8030008000400087856341232547698C7
:10029000EC0200209846002000040008100400082A
:1002A00010040008100400081004000810040008DE
:1002B000100400081004000808B5FFF765FF00BE31
:1002C000FEE71EF0040F0CBFEFF30880EFF3098088
:1002D0007146414A10472DE9F04182B004460D466F
:1002E000124B5F6BD3F838809E6A1B6B13F0020FC2
:1002F00003D00E4BDB6A002B0BDB0D4803F042F8FA
:10030000009543463A463146204603F0ABF800BE1E
:10031000FEE74BF6AB6103F01FF90028EDD0034B6D
:100320004FF00042DA6202B0BDE8F08100ED00E07B
:1003300078C5000800BEFEE71EF0040F0CBFEFF307
:100340000880EFF309807146244A10472DE9F041F7
:1003500082B004460D46084B5F6BD3F838809E6A26
:10036000064803F00FF8009543463A4631462046CA
:1003700003F078F800BEFEE700ED00E088C5000855
:100380001EF0040F0CBFEFF30880EFF309807146F5
:10039000134A10472DE9F04182B004460D46084B40
:1003A0005F6BD3F838809E6A064802F0EBFF009539
:1003B00043463A463146204603F054F800BEFEE775
:1003C00000ED00E094C5000800BEFEE700BEFEE7B9
:1003D00000BEFEE770470000D70200084D0300088A
:0803E0009503000800BEFEE7D2
:1003E800BCCE000800000020EC020020BCCE0008B3
:1003F8000000001000000010EC0200209C460020C5
:080408000000001000000010CC
:1004100000B589B000210191114B5A6C42F4805211
:100420005A645A6C02F480520192019A02911A6B3A
:1004300042F001021A631B6B03F001030293029B5B
:10044000E0230393022304930593012306930523DA
:10045000079303A9034800F015FE09B05DF804FBFB
:10046000003802400000024010B5104802F00CFDB8
:1004700000B110BD0D4C0E4B23601823E361002327
:10048000A36063612361A3620722E262E3602362E7
:100490004FF40072A26163624FF482736360FFF7EE
:1004A000B7FF204602F04EF9E3E700BFF00200205C
:1004B0000030014008B5034802F030FAFFF7D4FFDE
:1004C00008BD00BFF002002000B587B08DF80F0016
:1004D00000238DF817300A4B1B68009301230DF1A0
:1004E00017020DF10F01074802F040FB20B99DF8FB
:1004F000170007B05DF804FBFFF7DCFFF7E700BF6C
:1005000008000020F002002030B587B00C460546F8
:1005100058B9002300931A4B1A6B42F001021A6378
:100520001B6B03F001030093009B1CB1012C0FD047
:1005300007B030BD012301930023029303930223EC
:10054000049301A90F4B53F8250000F09BFDEDE744
:100550000123019300240394022304930A4B029382
:1005600001A9084B53F8250000F08CFD22460F210D
:10057000062000F069F9062000F0ACF9D8E700BFCA
:1005800000380240040000200000311008B50121AD
:10059000024B53F8200000F0F3FE08BD04000020D9
:1005A00070B586B0002100910E4B1A6B42F010021C
:1005B0001A631B6B03F010030093009B082601963F
:1005C0000124029403910494074D01A9284600F0E8
:1005D00059FD22463146284600F0E6FEFFF744FF6B
:1005E00006B070BD003802400010024010B586B061
:1005F000002400940E4B1A6B42F010021A631B6B1E
:1006000003F010030093009B02230193094A029216
:100610000493039401A9084800F034FD22460F21F9
:10062000072000F011F9072000F054F906B010BDC2
:1006300000380240000011100010024070B505465D
:100640000E461446012A01D941F040060022082135
:100650000A4800F0A9FE3046FFF736FF05E015F81E
:10066000010BFFF731FF013CA4B2002CF7D10122AE
:100670000821024800F098FE70BD00BF0010024043
:1006800070B505461446012A0AD941F0C006002279
:1006900008210C4800F088FE3046FFF715FF09E0FE
:1006A00041F08006F3E70020FFF70EFF05F8010B8D
:1006B000013CA4B2002CF6D101220821014800F02F
:1006C00073FE70BD0010024030B587B000238DF876
:1006D0000C308DF80D308DF80E30234B9B68984709
:1006E0003B2807D0214B9B6898473F2824D0012006
:1006F00007B030BD1E4D1C4B2B6040228DF81020E2
:1007000000248DF8114007228DF812208DF8134037
:100710008DF814401B684720984720238DF80C3033
:1007200001238DF80D300C238DF80E302B689B6A59
:100730002D2098472046DBE70C4B0D4A13606022C2
:100740008DF8042007228DF8052000248DF806403E
:100750008DF807408DF808408DF809401B68672028
:1007600098472046C4E700BF7800002044000020DE
:100770004803002010B50446074B1868074BA3FB3D
:100780000030800900F0BEF8002221464FF0FF3013
:1007900000F05AF8002010BD0C000020D34D62106C
:1007A00008B50B4B1A6842F400721A601A6842F4DA
:1007B00080621A601A6842F480721A60032000F0A6
:1007C00025F80F20FFF7D6FF04F0D6F9002008BD6A
:1007D000003C0240024A136801331360704700BFB7
:1007E0004C030020014B1868704700BF4C030020E9
:1007F00010B582B00190FFF7F5FF0446FFF7F2FF56
:10080000001B019B9842F9D302B010BD10B50446FD
:10081000C31E042B0FD80A4AD36823F4E0631B04D9
:100820001B0C240204F4E064234343F0BF6343F44D
:100830000033D36010BDA421024802F099FDEAE71D
:1008400000ED00E064C2000870B505460C4616468F
:100850000F2A25D80F2C28D81B4BDB68C3F30223A3
:10086000C3F10701042928BF04211A1D062A21D932
:10087000033B4FF0FF3202FA01F124EA01049C40ED
:1008800002FA03F326EA03063443002D14DB2401A5
:10089000E4B205F1604505F5614585F8004370BD9A
:1008A000BC210A4802F064FDD4E7BD21074802F0EC
:1008B0005FFDD1E70023DCE705F00F052401E4B27A
:1008C000034B5C55EBE700BF00ED00E064C200089D
:1008D00014ED00E010B5041E0ADB002C07DB04F069
:1008E0001F02640901239340044A42F8243010BDDA
:1008F000D021034802F03CFDEFE700BF00E100E03B
:1009000064C200080138B0F1807F0BD24FF0E023C1
:100910005861054AF02182F82310002098610722CF
:100920001A6170470120704700ED00E010B50446E1
:10093000042800D040B9042C0CD04FF0E0221369F9
:1009400023F00403136110BD40F2B311054802F017
:100950000FFDF0E74FF0E022136943F00403136149
:10096000F1E700BF64C20008704708B5FFF7FCFF5D
:1009700008BD30B405682C6824F480242C60046819
:1009800063608368402B05D0036899600368DA6070
:1009900030BC704703689A600368D960F8E70000CC
:1009A00010B40368D9B210390C4AA2FB01421209F3
:1009B0000B4CA25CC2655F2909D923F47F7323F035
:1009C000030304338365806D5DF8044B704723F4A3
:1009D0007F7323F003038365F5E700BFABAAAAAAE0
:1009E000C8C20008836A8269C2B9012B0AD0022BEF
:1009F0000ED00BB100207047C36A13F0807F2ED158
:100A000000207047C36AB3F1C07F2AD0002070472E
:100A1000C36A13F0807F26D100207047B2F5005FD3
:100A200009D0022B27D9032B27D1C36A13F0807F6B
:100A300025D100207047032B03D8DFE803F016040C
:100A4000160A00207047C36A13F0807F0FD1002080
:100A50007047C36AB3F1C07F0BD0002070470120FC
:100A60007047012070470120704701207047012026
:100A70007047012070470120704700207047012017
:100A80007047000070B50446FFF7ACFE002C00F084
:100A90003D8105462368974A934231D018329342EC
:100AA0002ED0183293422BD01832934228D01832CD
:100AB000934225D01832934222D0183293421FD04D
:100AC000183293421CD002F55672934218D0183255
:100AD000934215D01832934212D0183293420FD05D
:100AE000183293420CD01832934209D018329342F4
:100AF00006D01832934203D0C9217F4802F038FC57
:100B00006368A3B1B3F1007F11D0B3F1806F0ED051
:100B1000B3F1C06F0BD0B3F1006F08D0B3F1206F09
:100B200005D0B3F1406F02D0B3F1606F6DD1A3680F
:100B30001BB1402B01D0802B6CD1E368B3F5007F53
:100B400001D0002B6BD12369B3F5806F01D0002B4E
:100B50006AD163692BB1B3F5006F02D0B3F5805F42
:100B600067D1A3692BB1B3F5005F02D0B3F5804F15
:100B700064D1E36923B1B3F5807F01D0202B62D12A
:100B8000236A43B1B3F5803F05D0B3F5003F02D0EF
:100B9000B3F5403F5CD1636A0BB1042B5DD1636A4E
:100BA000C3B1A36A032B5DD8E36A43B1B3F5000F69
:100BB00005D0B3F1807F02D0B3F1C07F57D1236B52
:100BC00043B1B3F5001F05D0B3F5800F02D0B3F5E4
:100BD000C00F51D1002384F83430022384F835301B
:100BE0002268136823F00103136023681A6812F067
:100BF000010F46D0FFF7F6FD401B0528F5D920234D
:100C00006365032084F8350070BDCA213A4802F0BC
:100C1000AFFB8CE7CB21384802F0AAFB8DE7CC2153
:100C2000354802F0A5FB8EE7CD21334802F0A0FB4A
:100C30008FE7CE21304802F09BFB92E7CF212E4870
:100C400002F096FB95E7D0212B4802F091FB97E745
:100C5000D121294802F08CFB9DE7D221264802F0E1
:100C600087FB9CE7D721244802F082FB9CE7D82130
:100C7000214802F07DFBA2E7D9211F4802F078FB52
:100C8000A8E71A681D4810406168A2680A43E16835
:100C90000A4321690A4361690A43A1690A43E16978
:100CA0000A43216A0A430243616A04291CD01A607C
:100CB0002668756925F00705636A1D43042B05D175
:100CC000A36A1D432046FFF78DFEC8B97561204613
:100CD000FFF766FEE26D3F2393408360002060656E
:100CE000012384F835308FE7E16A206B01430A4322
:100CF000DDE700BF1060024098C200083F8010F09E
:100D000040236365012084F835007DE701207BE7FF
:100D100038B338B5054690F83500C0B202281FD068
:100D20002A68136823F0010313602B6800241C60F9
:100D30002B685C602B689C602B68DC602B681C61F6
:100D40002B6821225A612846FFF72AFEEA6D3F23CD
:100D5000934083606C6585F8354085F834402046C3
:100D600038BD0120704700002DE9F04104460E46D1
:100D700017461D46D0F858805A1E4FF6FE739A4209
:100D800011D894F83430012B3BD0012384F834304F
:100D900094F83530DBB2012B0BD0002384F83430CB
:100DA0000220BDE8F08140F2CD11174802F0E0FAD0
:100DB000E7E7022384F83530002363652B463A4683
:100DC00031462046FFF7D5FDE26D3F239340C8F83A
:100DD00008302268136843F01603136022685369D1
:100DE00043F080035361236C23B12268136843F0FE
:100DF000080313602268136843F0010313600020A6
:100E0000CFE70220CDE700BF98C2000870B50446C6
:100E1000866DFFF7E7FC94F83530DBB2022B06D085
:100E200080236365002384F83430012070BD0546BB
:100E30002268136823F0160313602268536923F0B5
:100E400080035361236CE3B12268136823F0080325
:100E500013602268136823F00103136023681B6882
:100E600013F0010F11D0FFF7BDFC431B052BF5D983
:100E700020236365002384F83430032084F8350090
:100E8000D4E7A36C002BDFD1E3E7E26D3F2393406F
:100E9000B360002084F83400012384F83530C5E7BE
:100EA000F0B583B0044600230193724B1D68724B6A
:100EB000A3FB0535AD0A876D3E68C26D08239340DC
:100EC000334210D003681A6812F0040F0BD01A686E
:100ED00022F004021A60C26D08239340BB60436D88
:100EE00043F001034365E26D644B9340334209D004
:100EF0002268526912F0800F04D0BB60636D43F02A
:100F000002036365E26D5E4B9340334209D0226871
:100F1000126812F0020F04D0BB60636D43F004034B
:100F20006365E26D10239340334224D02268126837
:100F300012F0080F1FD0BB6023681A6812F4802FCC
:100F40000DD01B6813F4002F04D1236C9BB12046F5
:100F5000984710E0A36C73B1204698470BE01A68DD
:100F600012F4807F03D11A6822F008021A60236C01
:100F70000BB120469847E26D20239340334255D071
:100F80002268126812F0100F50D0BB6094F8353010
:100F9000DBB2052B0ED023681A6812F4802F33D0F1
:100FA0001B6813F4002F2AD1636C002B3ED020461F
:100FB00098473BE02268136823F016031360226809
:100FC000536923F080035361236CA3B12268136833
:100FD00023F008031360E26D3F239340BB600023BE
:100FE00084F83430012384F83530236D002B3FD052
:100FF000204698473CE0A36C002BE7D1EBE7E36B7E
:10100000A3B12046984711E01A6812F4807F09D1F5
:101010001A6822F010021A60002384F83430012389
:1010200084F83530E36B0BB120469847636DFBB114
:10103000636D13F0010F17D0052384F83530226853
:10104000136823F001031360019B01330193AB424A
:1010500004D823681B6813F0010FF5D1002384F82E
:101060003430012384F83530E36C0BB120469847C7
:1010700003B0F0BD0C000020B5814E1B01008000C4
:10108000040080002DE9F04782B007460E46354B3C
:10109000984223D003F5806398421FD003F5806304
:1010A00098421BD003F58063984217D003F5806304
:1010B000984213D003F5806398420FD003F5806304
:1010C00098420BD003F58063984207D003F5806304
:1010D000984203D0C521244802F04AF9338833B33B
:1010E0007368012B1ED9112B1CD0022B1AD0122B86
:1010F00018D01E4A934215D002F58012934211D0A7
:1011000002F5801293420DD0A2F5F812934209D055
:1011100002F58012934205D002F58012934201D06D
:10112000032B09D1B368022B0BD8002456E0C6214B
:101130000D4802F01DF9D3E7C7210B4802F018F95A
:10114000F0E7C821084802F013F9EEE7D921064874
:1011500002F00EF970E0EC21034802F009F998E082
:10116000082306E000000240D0C200080000111071
:1011700000238B40034302327D4941F822307D4BEE
:101180001A686FEA080322EA0801706810F4803FC9
:1011900001D048EA0201774A1160526803EA02016D
:1011A000706810F4003F01D048EA0201714A5160B2
:1011B000926803EA0201706810F4801F01D048EAC7
:1011C00002016C4A9160D2681340716811F4001FEB
:1011D00001D048EA0203674AD36001340F2C00F2C1
:1011E000C3800125A540336803EA050835EA0303F7
:1011F000F3D17368022B01D0122B2DD13369DBB1EF
:10120000092B19D0012B17D0022B15D0032B13D08B
:10121000042B11D0052B0FD0062B0DD0072B0BD094
:10122000082B09D00A2B07D00B2B05D00C2B03D091
:101230000D2B01D00F2B89D1E208083257F822007C
:1012400004F0070399000F238B4020EA0300336961
:101250008B40034347F822303A684FEA440A03239D
:1012600003FA0AF36FEA030922EA0302736803F040
:10127000030303FA0AF313433B6073685A1E012AFF
:1012800003D9112B01D0122B14D1F368032B3FF695
:1012900062AFBA6809EA0202F36803FA0AF3134379
:1012A000BB607A6822EA05027368C3F30015A540A3
:1012B00015437D60FB6809EA0309B36803FA0AF382
:1012C00043EA0903FB60736813F0805F85D0002355
:1012D0000193294B5A6C42F480425A645B6C03F4CC
:1012E00080430193019BA208911C214B53F82100DC
:1012F00004F0030399000F238B4020EA03001F4BE7
:101300009F423FF435AF03F580639F421ED003F543
:1013100080639F421CD003F580639F421AD003F57F
:1013200080639F4218D003F580639F4216D003F577
:1013300080639F4214D003F580639F4212D003F56F
:1013400080639F423FF40CAF092312E7012310E7AB
:1013500002230EE703230CE704230AE7052308E72B
:10136000062306E7072304E702B0BDE8F08700BFC5
:1013700000380140003C01400038024000000240BB
:1013800038B504460D4621B123691D4207D001201E
:1013900038BD4FF4C871034801F0EAFFF4E70020BC
:1013A000F6E700BFD0C2000870B5054614460E46E9
:1013B00021B1012C08D86CB1AE6170BD40F2B11101
:1013C000064801F0D5FFF4E74FF4D971034801F066
:1013D000CFFFF0E73604AE61EFE700BFD0C20008F0
:1013E00008B5054B5B69034200D108BD024B58614B
:1013F00003F0D6FCF9E700BF003C0140704770479E
:1014000008B5806BFFF7FBFF08BD704708B5806B20
:1014100004F0C0F808BD08B5806B002343854386FF
:10142000012380F83D30036C43F02003036404F093
:10143000BFF808BD90F83D007047000008B50346AE
:10144000806B1B681B6813F4807F11D1036A012B2A
:1014500011D00268536823F00203536000234385D0
:1014600090F83D30DBB2322B22D0012380F83D30A2
:10147000FFF7CBFF08BD0368DA6902F44072B2F5EA
:10148000007F03D0DA6912F4407F04D15A6822F059
:1014900002025A60E2E70A4A934206D04FF0402225
:1014A000536823F002035360D8E7A2F58062F7E7A0
:1014B000438E9BB2002BDBD1012380F83D30D7E770
:1014C0000038004008B50346806B1B681B6813F4A6
:1014D000807F11D1036A012B11D00268536823F079
:1014E000010353600023438690F83D30DBB2322B7A
:1014F00021D0012380F83D3004F040F808BD026897
:10150000D36903F44073B3F5007F03D0D36913F4B8
:10151000407F0BD10C4B9A4206D04FF040225368CB
:1015200023F001035360DDE7084AF8E7536823F02E
:1015300001035360D6E7438D9BB2002BDCD101231E
:1015400080F83D30D8E700BF00380040003400404C
:10155000002900F0DA8070B582B0044615460E46C8
:10156000002A00F0D480002B00F0D38090F83D20BA
:10157000D2B2012A40F0D0806162C5620268D269AD
:1015800002F00702032A06D0052A04D0038543850A
:101590000386438605E05B009BB223856385238633
:1015A000638694F83C30DBB2012B00F0B780012356
:1015B00084F83C30322384F83D3000232364A36B4D
:1015C000574A1A64A36B574ADA63A26B564BD3642B
:1015D000626B56491164626B5549D163626BD36487
:1015E0002268D36903F44073B3F5007F01D0002B68
:1015F00040D1A06B4F4B9A4235D04FF04021238E03
:101600009BB22A460C31FFF7AFFB2268494B9A4246
:101610002BD04FF04022536843F0010353602268FF
:10162000238D9BB20C323146606BFFF79DFB226825
:10163000536843F0020353602368DA6912F4806F41
:101640000DD13C4A934212D04FF04022D36943F46B
:101650008063D3612268D36943F48063D36100203F
:1016600084F83C0056E03449C9E7334AD3E7A2F591
:101670008062EBE7606B2F4B9A4232D04FF04022F2
:10168000238D9BB20C323146FFF76EFB2268294B4B
:101690009A4228D04FF04022536843F0020353602F
:1016A0002168238E9BB22A460C31A06BFFF75CFBAE
:1016B0002268536843F0010353602368DA6912F427
:1016C000806F14D1DA6942F48062DA612268194BC2
:1016D0009A420AD04FF04022D36943F48063D36129
:1016E000BDE7154ACCE7144AD6E7134AF4E7DA69AE
:1016F00002F44072B2F5407FB1D100220192DA6863
:1017000001929B680193019BA9E70120704701208A
:1017100000E0012002B070BD0220FBE70220F9E7E3
:101720000D140008C514000817140008011400085F
:101730003D140008003800400034004090F83C3070
:10174000DBB2012B4AD0012380F83C3090F83D30C9
:10175000DBB2122B1ED090F83D30DBB2222B23D00F
:1017600090F83D30DBB2322B19D1436813B3B3F597
:10177000007F1FD00268536823F0010353600268A2
:10178000174B9A4228D04FF04022536823F00203AF
:10179000536004E00268536823F00203536000239F
:1017A00080F83C30184670470268536823F0010304
:1017B0005360F4E70268536823F002035360026841
:1017C000074B9A4206D04FF04022536823F00103A2
:1017D0005360E4E7034AF8E7024AD6E7022070477D
:1017E000003800400034004090F83C30DBB2012B60
:1017F00053D0012380F83C3090F83D30DBB2122BFF
:101800001ED090F83D30DBB2222B2CD090F83D302A
:10181000DBB2322B19D143685BB3B3F5007F28D01C
:101820000268536843F00103536002681C4B9A42FC
:1018300031D04FF04022536843F00203536004E07C
:101840000268536843F0020353600368DA6912F4D4
:10185000806F03D1DA6942F48062DA61002380F894
:101860003C30184670470268536843F001035360E8
:10187000EBE70268536843F0020353600268084BC9
:101880009A4206D04FF04022536843F00103536060
:10189000DBE7044AF8E7034ACDE70220704700BFC0
:1018A000003800400034004090F83C30DBB2012B9F
:1018B0004ED010B50446012380F83C3002685368CE
:1018C00023F0020353600268536823F0010353605E
:1018D000036A012B16D0606B08B1FFF797FAA06B73
:1018E00008B1FFF793FA2268D36923F48063D361C8
:1018F000236A012B1FD0012384F83D30002084F897
:101900003C0010BD0268134B9A4210D04FF04022A9
:10191000536823F00203536022680E4B9A4208D0AA
:101920004FF04022536823F001035360D3E70A4A83
:10193000EEE7094AF6E72268064B9A4206D04FF0D6
:101940004022D36923F48063D361D4E7024AF8E7E5
:10195000022070470038004000340040C369012B6A
:1019600021D0124B5B6813F4800F14D00F4B5B68CF
:1019700003F03F030E48B0FBF3F30C4AD2F88400A7
:10198000C0F3881003FB00F0D2F88430C3F3027375
:10199000B0FBF3F07047054B5B6803F03F0305486D
:1019A000B0FBF3F3E9E70448704700BF003802409A
:1019B00000127A000024F4000080BB00002800F030
:1019C000068170B50446436843B1B3F5807F05D006
:1019D000B3F5007F02D0B3F5407F7BD1A3683BB164
:1019E000102B05D0202B03D0302B01D0B02B76D17B
:1019F000E368012B03D9032B01D0052B74D1236994
:101A0000B3F5007F01D0002B73D16369A3F5FA51C0
:101A1000704A914201D9022B70D1A3690BB1082BF6
:101A200071D1E369012B73D894F83D30002B74D049
:101A3000022284F83D202168CB6923F47B6323F0E4
:101A40000F03CB6123681A622368DD6963699342DF
:101A500074D0E368002B66D101262046FFF77EFF95
:101A60002369B3F5007F60D07601B0FBF6F000EBA0
:101A7000800043006069B3FBF0F30533564AA2FBD4
:101A80000323DE08C3F3C002C2EBD3035B081102D9
:101A90009A1EFD2A01D90021022322690A432168E6
:101AA00013430B626368A2681343E2681343A2699D
:101AB00013431D4345F400652368DD61236A012B50
:101AC0003FD8236A012B42D000202064012384F8F0
:101AD0003D3070BDC521414801F04AFC7EE7C6217A
:101AE0003E4801F045FC83E7C7213C4801F040FC3B
:101AF00085E7C821394801F03BFC86E7C921374812
:101B000001F036FC89E7CA21344801F031FC88E74E
:101B1000CB21324801F02CFC86E784F83C3020468B
:101B2000FFF76CFC84E7022697E7000A00EB8000D1
:101B300043006069B3FBF0F305339FE700263146AD
:101B4000A6E740F22711254801F012FCB9E7226808
:101B5000234B9A4223D04FF04022D36923F47B6376
:101B600023F00F03D36122681D4B9A4219D04FF026
:101B70004022022313622268194B9A4213D04FF07D
:101B80004021C8696268B2F5007F0ED0D2B1B2F5CB
:101B9000407F1AD0B2F5807F09D1002607E0114AB4
:101BA000DBE7104AE5E70F49EBE74FF48076A368DF
:101BB0003343E6683343A6693343034343F4006386
:101BC000CB6181E74FF48076F1E70026EFE7012053
:101BD000704700BFC0CE0200CDCCCCCC00C3000803
:101BE000003800400034004030B583B0044603683C
:101BF0000F2B29D8236813F0010F3DD06368012B08
:101C000001D9052B25D19F4B9B6803F00C03042BB6
:101C100029D09C4B9B6803F00C03082B1ED0227923
:101C2000984B9A706368002B50D0FEF7DBFD054699
:101C3000944B1B6813F4003F1ED1FEF7D3FD401BED
:101C40006428F5D90320F1E1F5218F4801F090FBDC
:101C5000D0E7FA218C4801F08BFBD4E7894B5B6815
:101C600013F4800FDBD0874B1B6813F4003F03D0C5
:101C70006368002B00F0D581236813F0020F5ED05B
:101C8000E368012B31D823691F2B34D87D4B9B6827
:101C900013F00C0F3AD07B4B9B6803F00C03082B1E
:101CA0002FD0E368002B7CD0784B01221A60FEF71E
:101CB00099FD0546734B1B6813F0020F5ED1FEF7CA
:101CC00091FD401B0228F5D90320AFE1FEF78AFD04
:101CD00005466C4B1B6813F4003FCDD0FEF782FD28
:101CE000401B6428F5D90320A0E14FF496716648A3
:101CF00001F03EFBC7E740F22D11634801F038FBCD
:101D0000C4E7604B5B6813F4800FCAD15D4B1B685E
:101D100013F0020F03D0E368012B40F08481594B8C
:101D20001A6822F0F8022169F82393FAA3F31BB38F
:101D3000B3FA83F301FA03F31343524A136023689F
:101D400013F0080F58D06369012B3CD86369002B4E
:101D50003FD04E4B0122C3F8802EFEF743FD0546CF
:101D6000484B5B6F13F0020F46D1FEF73BFD401B63
:101D70000228F5D9032059E12023DBE7414B1A68FB
:101D800022F0F8022169F82393FAA3F33BB1B3FAE6
:101D900083F301FA03F313433A4A1360CFE7202396
:101DA000F7E73A4B00221A60FEF71CFD0546354B5B
:101DB0001B6813F0020FC2D0FEF714FD401B02286F
:101DC000F5D9032032E140F26D112F4801F0D0FA2D
:101DD000BCE72E4B0022C3F8802EFEF703FD05461C
:101DE000284B5B6F13F0020F06D0FEF7FBFC401B85
:101DF0000228F5D9032019E1236813F0040F5AD003
:101E0000A368012B01D9052B1FD1002301931D4B82
:101E10001A6C42F080521A641B6C03F080530193D9
:101E2000019B1B4A136843F480731360FEF7DAFCCE
:101E30000546174B1B6813F4807F0CD1FEF7D2FCCC
:101E4000401B0228F5D90320F0E040F297110E481C
:101E500001F08EFAD9E7227A0A4B83F87020A36842
:101E6000C3B1FEF7BFFC0546064B1B6F13F0020F14
:101E700021D1FEF7B7FC401B41F288339842F3D9D9
:101E80000320D3E00038024034C30008000047427A
:101E900000700040FEF7A6FC0546664B1B6F13F072
:101EA000020F08D0FEF79EFC401B41F28833984297
:101EB000F3D90320BAE0A369022B39D8A369002B18
:101EC00000F0B3805B4A926802F00C02082A00F02E
:101ED000AF80022B40F09180E36913B1B3F5800F1E
:101EE0002CD1236A3F2B2FD8636A323BB3F5BF7FD7
:101EF00030D8A36A022B05D0042B03D0062B01D0C7
:101F0000082B2DD1E36A043B0B2B2FD84A4B002220
:101F10001A66FEF767FC0546464B1B6813F0007F08
:101F20002AD0FEF75FFC401B0228F5D903207DE094
:101F30004FF4E671414801F01BFABFE740F2D511BA
:101F40003E4801F015FACCE74FF4EB713B4801F045
:101F50000FFAC9E740F2D711384801F009FAC8E78B
:101F60004FF4EC71354801F003FACBE740F2D91198
:101F7000324801F0FDF9C9E7E369226A1343616A57
:101F800047F6C07292FAA2F27AB3B2FA82F201FA7A
:101F900002F21343A26A5208013A4FF4403191FA17
:101FA000A1F121B3B1FA81F18A401343E16A4FF004
:101FB000706292FAA2F2E2B1B2FA82F201FA02F28D
:101FC00013431C4A53601C4B01221A66FEF70AFC9D
:101FD0000446184B1B6813F0007F0CD1FEF702FC7F
:101FE000001B0228F5D9032020E02022CFE7202182
:101FF000DAE72022E2E7002018E00F4B00221A6601
:10200000FEF7F0FB04460B4B1B6813F0007F06D075
:10201000FEF7E8FB001B0228F5D9032006E00020AC
:1020200004E0012002E0012000E0002003B030BD08
:102030000120FBE7003802400000474234C300089B
:10204000264B9B6803F00C03042B43D0082B43D191
:10205000224A536803F03F03526812F4800F23D0E2
:102060001F48B0FBF3F01D4B5A6847F6C0731A4087
:1020700093FAA3F3B3B1B3FA83F322FA03F303FBA6
:1020800000F0164B5B6803F440334FF4403292FA91
:10209000A2F2EAB1B2FA82F2D34001335B00B0FBA4
:1020A000F3F070472023E8E70E48B0FBF3F00B4B4A
:1020B0005A6847F6C0731A4093FAA3F333B1B3FAE0
:1020C00083F322FA03F303FB00F0DAE72023F8E7B7
:1020D0002022E1E70248704702487047003802407A
:1020E00000127A000024F40070B504460D4603681F
:1020F000013B0E2B5ED8072D62D88E4B1B6803F078
:102100000F03AB4208D2EBB28A4A1370136803F094
:102110000F03AB4240F00881236813F0020F18D080
:10212000A3687BB1802B0DD0902B0BD0A02B09D0B6
:10213000B02B07D0C02B05D0D02B03D0E02B01D083
:10214000F02B43D17C4A936823F0F003A1680B4342
:102150009360236813F0010F7FD06368032B3BD893
:102160006368012B3ED09A1E012A42D9724A126836
:1021700012F0020F00F0DA806F498A6822F0030241
:1021800013438B60FEF72EFB06466368012B37D0A6
:10219000022B44D0032B51D0674B9B6813F00C0FDC
:1021A0005BD0FEF71FFB801B41F288339842F3D9C6
:1021B0000320AAE040F23721604801F0D9F89AE7FD
:1021C0004FF40E715D4801F0D3F896E740F24F21CD
:1021D0005A4801F0CDF8B5E740F25621574801F0D2
:1021E000C7F8BDE7544A126812F4003FC4D1012079
:1021F0008BE0514A126812F0007FBDD1012084E0CB
:102200004D4B9B6803F00C03042B26D0FEF7EAFA33
:10221000831B41F288329342F2D9032075E0464B8A
:102220009B6803F00C03082B17D0FEF7DBFA801B2A
:1022300041F288339842F2D9032066E03E4B9B6816
:1022400003F00C030C2B08D0FEF7CCFA801B41F2F4
:1022500088339842F2D9032057E0364B1B6803F0CD
:102260000F03AB4207D9EAB2324B1A701B6803F076
:102270000F03AB425CD1236813F0040F14D0E36862
:102280005BB1B3F5805F08D0B3F5A05F05D0B3F5BF
:10229000C05F02D0B3F5E05F38D1274A936823F4DA
:1022A000E053E1680B439360236813F0080F15D0E7
:1022B00023695BB1B3F5805F08D0B3F5A05F05D0AB
:1022C000B3F5C05F02D0B3F5E05F25D11A4A936839
:1022D00023F46043216943EAC1039360FFF7B0FE32
:1022E000154B9A6802F0F002F02393FAA3F3CBB1F6
:1022F000B3FA83F322FA03F3114AD35CD840114BAB
:1023000018600F20FEF736FA002070BD4FF42D71D3
:102310000A4801F02DF8C0E740F2BB21074801F060
:1023200027F8D3E72023E5E70120EEE70120ECE7DB
:102330000120EAE7003C02400038024034C30008B4
:1023400064C300080C000020014B1868704700BFF0
:102350000C00002030B583B004460368013B062B17
:102360001ED8236813F0010F59D0A368023B052B38
:102370001CD86368323BB3F5BF7F1DD8A34B002246
:102380009A66FEF72FFA0546A14B1B6813F0006F03
:1023900018D0FEF727FA431B022BF5D9032032E1B0
:1023A0004FF4EC619B4800F0E3FFDAE740F266711E
:1023B000984800F0DDFFDCE740F26771954800F0D7
:1023C000D7FFDBE7626847F6C07393FAA3F313B352
:1023D000B3FA83F39A40A1684FF0E04393FAA3F372
:1023E000DBB1B3FA83F301FA03F31343884AC2F86B
:1023F0008430864B01229A66FEF7F4F90546844B39
:102400001B6813F0006F0AD1FEF7ECF9431B022B97
:10241000F5D90320F7E02023DCE72023E3E7236856
:1024200013F0020F00F0EE80E368B3F5807F79D0FF
:10243000B3F5007F76D0784A934273D002F58032AC
:1024400093426FD002F5803293426BD002F5803216
:10245000934267D002F58032934263D002F5803216
:1024600093425FD002F5803293425BD002F5803216
:10247000934257D002F58032934253D002F5803216
:1024800093424FD002F5803293424BD002F5803216
:10249000934247D002F58032934243D002F5803216
:1024A00093423FD002F5803293423BD002F5803216
:1024B000934237D002F58032934233D002F5803216
:1024C00093422FD002F5803293422BD002F5803216
:1024D000934227D002F58032934223D002F5803216
:1024E00093421FD002F5803293421BD002F5803216
:1024F000934217D002F58032934213D002F5803216
:1025000093420FD002F5803293420BD002F5803215
:10251000934207D002F58032934203D002F5803215
:1025200093421FD100230193394B1A6C42F0805221
:102530001A641B6C03F080530193019B374A1368A4
:1025400043F480731360FEF74DF90546334B1B6867
:1025500013F4807F0CD1FEF745F9431B022BF5D90C
:10256000032050E04FF4F3612A4800F001FFD9E75F
:10257000274B1B6F13F4407314D0E26802F44072CF
:102580009A420FD0224B1A6F22F440721F49012049
:10259000C1F8400E0020C1F8400E1A671B6F13F0FF
:1025A000010F13D1E36803F44072B2F5407F1ED0EF
:1025B000174A936823F4F813936015490B6FE26888
:1025C000C2F30B0213430B6700201CE0FEF70AF96D
:1025D00005460F4B1B6F13F0020FE3D1FEF702F914
:1025E000401B41F288339842F3D903200BE008499D
:1025F0008A6822F4F81223F0704323F440731343E3
:102600008B60DAE7002003B030BD00BF0000474216
:102610000038024074C3000800030200007000404C
:1026200003230360154BD3F8842047F6C0731A4088
:1026300093FAA3F3EBB1B3FA83F322FA03F3436003
:102640000E4BD3F8842002F0E0424FF0E04393FABF
:10265000A3F383B1B3FA83F322FA03F38360074948
:102660008A6802F4F8120B6F03F440731343C360DB
:1026700070472023E1E72023EEE700BF0038024047
:102680002DE9F0410646884617461D463CE02DB12F
:10269000FEF7A8F8069BC01AA84235D332685368E3
:1026A00023F0E00353607368B3F5827F0BD0B36A05
:1026B000B3F5005F14D0012386F85130002386F86B
:1026C0005030032029E0B368B3F5004F02D0B3F5D2
:1026D000806FECD13268136823F040031360E6E7A3
:1026E0003268136823F400531B041B0C1360326818
:1026F000136843F400531360DDE74FF0010CBC4551
:102700000AD0B5F1FF3FC2D13468A46838EA0403A7
:10271000F3D04FF0000CF2E70020BDE8F08110B5D7
:1027200082B004460B46009200228021FFF7A8FFEA
:1027300008B902B010BD636D43F020036365032048
:10274000F7E77047002800F0E18010B50446036801
:102750006F4A93420CD0A2F57842934208D002F51A
:102760008062934204D040F20B116A4800F000FEF0
:10277000636813B1B3F5827F76D1A3682BB1B3F54B
:10278000806F02D0B3F5004F74D1E368B3F5006FEA
:1027900001D0002B74D1A369B3F5007F03D013B12E
:1027A000B3F5802F72D1E3696BB1082B0BD0102BDE
:1027B00009D0182B07D0202B05D0282B03D0302B85
:1027C00001D0382B68D1236A0BB1802B6AD1636AA0
:1027D0000BB1102B6CD1636A33B923690BB1022B97
:1027E0006CD16369012B6FD8A36A13B1B3F5005F95
:1027F00070D1A36AB3F5005F72D094F85130002B0A
:102800007AD0022384F851302268136823F0400301
:1028100013606368A2681343E26813432269134399
:1028200062691343A26902F400721343E26913431D
:10283000226A1343A16A22680B431360638B03F07F
:102840000403616A22680B435360A36AB3F5005F17
:1028500058D02268D36923F40063D36100206065F7
:10286000012384F8513010BD4FF48671294800F0DF
:102870007FFD82E740F20D11264800F079FD84E7E4
:102880004FF48771234800F073FD84E740F20F1185
:10289000204800F06DFD86E74FF488711D4800F078
:1028A00067FD90E740F211111A4800F061FD8EE7D4
:1028B0004FF48971174800F05BFD8CE740F2151169
:1028C000144800F055FD8CE74FF48B71114800F06F
:1028D0004FFD89E740F219110E4800F049FD88E7E5
:1028E000E36A013B4FF6FE72934286D94FF48E7134
:1028F000084800F03DFD80E784F850302046FFF79F
:1029000020FF7EE72368E26A1A61A2E70120704790
:1029100000300140A8C300087047000020B310B584
:1029200004460368114A93420CD0A2F578429342C0
:1029300008D002F58062934204D040F25D110C4849
:1029400000F016FD022384F851302268136823F04A
:10295000400313602046FFF7DFFF0020606584F826
:10296000510084F8500010BD012070470030014034
:10297000A8C300082DE9F04385B004460E469146F1
:102980001D46836813B1B3F5004F4BD194F8503016
:10299000012B00F0E780012384F85030FDF722FF7F
:1029A000804694F85170FFB2012F40F0D080002E85
:1029B00000F0CE80B9F1000F00F0CA80032384F844
:1029C0005130002363652663A4F83490A4F8369050
:1029D000A363A387E38763642364A368B3F5004F0D
:1029E00026D0A36AB3F5005F28D023681A6812F0D6
:1029F000400F03D11A6842F040021A60E368B3F551
:102A0000006F28D063681BB1E38E9BB2012B54D1B9
:102A1000236816F8012B1A73E38E9BB2013B9BB21D
:102A2000E3864AE04FF4E1714F4800F0A1FCADE7C6
:102A30002268136843F480431360D2E72268136866
:102A400023F400531B041B0C13602268136843F427
:102A500000531360C9E763681BB1E38E9BB2012B7F
:102A60000DD1236836F8022BDA60E38E9BB2013B6E
:102A70009BB2E38603E0D5B1B5F1FF3F11D1E38E00
:102A80009BB2002B37D023689A6812F0020FF2D065
:102A900036F8022BDA60E38E9BB2013B9BB2E386F1
:102AA000EDE7FDF79FFEA0EB0800A842E7D3032760
:102AB0004EE0F5B1B5F1FF3F15D1E28E92B2D2B141
:102AC00023689A6812F0020FF3D016F8012B1A73DC
:102AD000B4F836C01FFA8CFC0CF1FF3C1FFA8CFCDA
:102AE000A4F836C0E9E7FDF77DFEA0EB0800A84298
:102AF000E3D303272CE0CDF800802B4601220221EE
:102B00002046FFF7BDFD08B1032721E042462946D4
:102B10002046FFF704FE034680B9A26832B903924B
:102B20002268D168039192680392039AA26AB2F56F
:102B3000005F06D0626D5AB91F4609E02023636525
:102B400006E021680A6842F480520A60F2E7022730
:102B5000012384F85130002384F85030384605B002
:102B6000BDE8F0830227F9E7A8C300082DE9F04388
:102B700085B004460E46154699460C9F0023ADF8D5
:102B80000E308368002B5BD194F85030012B00F09D
:102B90007781012384F85030FDF724FE804694F8B5
:102BA0005130DBB26268012B0AD0B2F5827F40F06F
:102BB0005281A268002A40F05981042B40F05881CC
:102BC000002E00F05781002D00F05681B9F1000F62
:102BD00000F0548194F85130DBB2012B36D0002341
:102BE0006365A563A4F83E90A4F83C902663A4F81E
:102BF0003690A4F8349023646364A36AB3F5005F4D
:102C000028D023681A6812F0400F03D11A6842F0E6
:102C100040021A60E368B3F5006F28D063681BB107
:102C2000E38E9BB2012B08D1236816F8012B1A738F
:102C3000E38E9BB2013B9BB2E3864FF0010994E027
:102C400040F236318F4800F093FB9DE7052384F86E
:102C50005130C4E72268136823F400531B041B0C93
:102C600013602268136843F400531360C9E7636874
:102C70001BB1E38E9BB2012B08D1236836F8022BDF
:102C8000DA60E38E9BB2013B9BB2E3864FF0010911
:102C90001EE02268136843F4805313604FF000096C
:102CA00001E04FF00009E38F9BB273B123689A688B
:102CB00012F0010F09D0DB6825F8023BE38F9BB2CD
:102CC000013B9BB2E3874FF00109B7F1FF3F25D1EC
:102CD000E38E9BB21BB9E38F9BB2002B72D0B9F18C
:102CE000000FE0D0E38E9BB2002BDCD023689A6803
:102CF00012F0020FD7D036F8022BDA60E38E9BB2C7
:102D0000013B9BB2E386E38E9BB2002BC9D1A36A41
:102D1000B3F5005FBDD04FF00009C4E7FDF762FDD9
:102D2000A0EB0800B842D3D3032595E022681368CE
:102D300043F4805313604FF0000901E04FF00009A5
:102D4000E38F9BB273B123689A6812F0010F09D028
:102D5000DB6805F8013BE38F9BB2013B9BB2E38745
:102D60004FF00109B7F1FF3F24D1E38E9BB213B9B5
:102D7000E38F9BB233B3B9F1000FE1D0E38E9BB286
:102D8000002BDDD023689A6812F0020FD8D016F815
:102D9000012B1A73E38E9BB2013B9BB2E386E38E59
:102DA0009BB2002BCAD1A36AB3F5005FBED04FF02F
:102DB0000009C5E7FDF716FDA0EB0800B842D4D323
:102DC000032549E0A36AB3F5005F0DD023689A6834
:102DD00012F0100F1FD0626D42F0020262654FF6D2
:102DE000EF729A60012517E0CDF800803B46012282
:102DF00011462046FFF744FC38B92368DB689BB2D4
:102E0000ADF80E30BDF80E30E0E7636D43F002031D
:102E10006365032520E00025CDF800803B460122B4
:102E200002212046FFF72CFC08B1032514E042469E
:102E300039462046FFF773FC48B9A36863B902938B
:102E40002368DA6802929B680293029B04E02023C5
:102E50006365012500E00225012384F85130002339
:102E600084F85030284605B0BDE8F0830225F3E72A
:102E70000225F1E70125EFE70125EDE70125EBE765
:102E80000225EFE7A8C3000890F851007047000042
:102E900008B5034800F090FA012000F05FF800BF89
:102EA000D8C3000808B503460C4A12685AB10B4A49
:102EB0001068033323F003030344094A934206D8FE
:102EC000064A136008BD054A06491160EFE702F0A3
:102ED0000DFF0C2303604FF0FF30F3E75003002099
:102EE00000FC01209C46002030B51324002520461C
:102EF0002946ABBE0446204630BD38B5044602F034
:102F0000F5FE0546FFF7F0FF2860204638BDB0F11A
:102F1000FF3F00D0704708B5FFF7EFFF08BD000086
:102F200010B504460B4B186808B1836B5BB1132CCA
:102F30000CD8094B53F83430B3F1FF3F08D00648A2
:102F400000EBC40010BD02F02FFFF0E70020F9E70E
:102F50000020F7E714010020DC03002000B530B9A1
:102F6000044D182420462946ABBE0446FEE7024D18
:102F7000F7E700BF26000200230002002DE9F04120
:102F800084B0234F01970326039600230293012464
:102F900001AD20462946ABBE80461E4BC3F80080DB
:102FA000019703960423029320462946ABBE804630
:102FB000194BC3F80080019703960823029320461B
:102FC0002946ABBE0446154B1C60B4F1FF3F01D04F
:102FD00000230AE0104B1A68104B1A60F8E7104AF9
:102FE0004FF0FF3142F833100133132BF7DD0C4B58
:102FF000084A12681A6000225A60074909689960F5
:10300000DA600649096819615A6104B0BDE8F081C7
:10301000ECC30008D4030020D8030020D003002014
:10302000DC0300202DE9F04383B0814688462A4B1B
:1030300000934F23019315276C4638462146ABBEBB
:103040000746AFBB244B002283F84F20009A3E4630
:103050003C463D4607E001321E46204B43F8252002
:1030600001350124013292F90030FBB164B91C49E9
:1030700059560029F6DB092BF4D0082D16DC222B3B
:10308000E9D0272BE9D1E6E736B19E42EAD1002309
:1030900013703E463C46E5E711495956002901DBCD
:1030A000092BDFD1002313703446DBE73DB900E084
:1030B0000025094B00221A70084A13600135074B9E
:1030C000002243F82520C9F80050C8F80030FFF767
:1030D00055FF03B0BDE8F08354030020A403002093
:1030E0007DC9000830B585B0019002910392062495
:1030F00001AD20462946ABBE04462046FFF707FF38
:1031000005B030BD70B50D461446FFF709FF68B134
:103110000646224629460068FFF7E4FFB0F1FF3F6C
:1031200003D0201A73680344736070BD02F0DEFDA3
:10313000092303604FF0FF30F7E7F0B583B00C468A
:103140001546FFF7EDFEC0B10646022D1CD8012D35
:1031500021D0022D29D03368009301940A256F46AF
:1031600028463946ABBE05462846FFF7D0FE002864
:103170002BDB7460204603B0F0BD02F0B7FD0923DD
:1031800003604FF0FF30F6E702F0B0FD1623036056
:103190004FF0FF30EFE74368E418DCD502F0A6FDFE
:1031A000162303604FF0FF30E5E7036800930C251A
:1031B0006F4628463946ABBE05462846FFF7A7FEB0
:1031C000B0F1FF3FD7D00444C5E74FF0FF30D2E75E
:1031D00008B5FFF7B2FF08BD30B585B00190029188
:1031E0000392052401AD20462946ABBE0446204685
:1031F000FFF78DFE05B030BD70B50D461446FFF7E4
:103200008FFE70B10646224629460068FFF7E4FFAC
:10321000031E11DBE01A7268024472609C4207D000
:1032200070BD02F063FD092303604FF0FF30F7E744
:103230000020FFF762FEF3E74FF0FF30F0E730B514
:1032400083B00190022401AD20462946ABBE04465E
:103250002046FFF75CFE03B030BD000038B50446E1
:10326000FFF75EFE80B10546601E012804D80C4BB6
:103270009A681B699A420ED02868FFF7E0FF10B9E0
:103280004FF0FF332B6038BD02F030FD092303609F
:103290004FF0FF30F7E74FF0FF332B600020F2E7ED
:1032A000DC03002070B50C46FFF73AFEA8B10646D5
:1032B000636843F4005363604FF48063A3640C2598
:1032C00028463146ABBE05462846FFF720FEB0F142
:1032D000FF3F01D02061002070BD02F007FD0923EF
:1032E00003604FF0FF30F7E738B505460C4658222B
:1032F0000021204602F067FE21462846FFF7D2FF54
:1033000038BD38B5FFF70CFE80B1054609242046CC
:103310002946ABBE04462046012C06D002F0E6FC4E
:103320000446FFF7E1FD2060002038BD02F0DEFC1E
:10333000092303600020F8E700B583B08C461946E6
:10334000134652B1074A53B10193009263460246B5
:10335000054800F017F8FFF79BFD044AF3E7034B1D
:10336000F2E700BFF0C3000800C4000878C40008FA
:1033700008B50A460146024800F004F8FFF788FD48
:1033800030C400080FB400B583B004AB53F8042B6D
:1033900001938021074804F0B1FD002804DC03B04C
:1033A0005DF804EB04B070470146024800F044F8B1
:1033B000F5E700BF7C04002010B5044603F0E1FDF2
:1033C0000146204600F038F80121024800F034F8A8
:1033D00010BD00BFF4C400082DE9F04385B00446D9
:1033E0000F46435633BB042528462146ABBE044650
:1033F000384605B0BDE8F08314F901CB04AA1A449D
:1034000002F810CC0133AB42F6D304AA13440022D5
:1034100003F8102C4FF00408E94640464946ABBE7D
:103420008046761B002EE3D03546102E28BF10258F
:103430000023E8E70E46F5E708B5FFF7CDFF08BD26
:1034400008B500F009F9054B054A9A60D3F88820C1
:1034500042F47002C3F8882008BD00BF00ED00E010
:1034600000000008F8B504460D4617461E462748DA
:10347000FFF788FF21682648FFF784FF6168254829
:10348000FFF780FFA1682448FFF77CFFE16823482D
:10349000FFF778FF21692248FFF774FF616921482F
:1034A000FFF770FFA1692048FFF76CFFE1691F4833
:1034B000FFF768FF1E48FFF765FF29461D48FFF725
:1034C00061FF1D4CE16A1D48FFF75CFF216B1C4842
:1034D000FFF758FFE16B1B48FFF754FF15F0800F13
:1034E0000AD115F4004F0CD11748FFF74BFF06998E
:1034F0001648FFF747FFF8BD39461548FFF742FF6A
:10350000EFE731461348FFF73DFFEDE75CC40008E5
:103510006CC400087CC400088CC400089CC400086B
:10352000ACC40008BCC40008CCC40008DCC400085B
:10353000ECC40008F8C4000800ED00E008C500086D
:1035400018C5000828C5000858C5000860C500084F
:1035500038C5000848C5000838B583691B888B4208
:1035600001D0002038BD044603684568013B302B7C
:1035700069D8DFE803F046211C1C5E30332D191991
:1035800068191919191936192468192768396868CA
:1035900068686868686868686868686868686868AB
:1035A00068686868681919004FF0FF330360A36901
:1035B0000233A3610120D5E700230360F7E700236E
:1035C0000360F4E700232B606B60AB60EB60EEE719
:1035D00000230360EBE7AB680360E8E700230360C8
:1035E000E5E700230360E2E7BFF34F8F1749CA689E
:1035F00002F4E062164B1343CB60BFF34F8F00BF62
:10360000FDE71449286803F0B2FC40B96B6813B9B0
:1036100001232360CBE7042B05D0082B06D04FF005
:10362000FF332360C3E702232360C0E70323236043
:10363000BDE72B68023B012B02D9AB680360B6E7FC
:1036400000230360B3E700208CE700BF00ED00E03B
:103650000400FA05ECC300080F49D1F8883043F4A0
:103660007003C1F888300D4B1A6842F001021A60ED
:10367000002098601A6822F0847222F480321A6066
:10368000074A5A601A6822F480221A60D8604FF004
:1036900000638B60704700BF00ED00E0003802401F
:1036A00010300024224B9B6803F00C03042B14D031
:1036B000082B16D01BB11F4B1F4A1A6002E01D4B8E
:1036C0001D4A1A601A4B9B68C3F303131B4AD15C53
:1036D000184A1368CB4013607047164B184A1A609B
:1036E000F0E7134B59685A6802F03F0211F4800F5B
:1036F00013D0134BB3FBF2F30D4A5268C2F3881296
:1037000002FB03F30A4A5268C2F30142013252003B
:10371000B3FBF2F3074A1360D4E7074BB3FBF2F3B2
:10372000034A5268C2F3881202FB03F3EAE700BFC0
:10373000003802400C0000200024F400A4C500085A
:1037400000127A0010F0AA3F14BF01220022030CDD
:103750001B0403B11023134310F0FF2200D00822F2
:10376000134310F0F03200D004221A4310F0CC3092
:1037700000D002201043704708B501F06AFF002016
:1037800008BD38B50446052001F06EFFE4B2012201
:1037900019212046FFF7F0FF05460322802120462D
:1037A000FFF7EAFF05444EF2220281212046FFF78F
:1037B000E3FF05444FF4C1424FF482612046FFF716
:1037C000DBFF05444AF280024FF483612046FFF795
:1037D000D3FF05444AF280024FF484612046FFF78C
:1037E000CBFF05444FF460424FF485612046FFF75C
:1037F000C3FF05444DF61A4240F243412046FFF70D
:10380000BBFF054466224FF496612046FFF7B4FFE4
:1038100005440B224FF48B612046FFF7ADFF0544B2
:10382000002240F212212046FFF7A6FF05440022A5
:1038300040F271112046FFF79FFF05440C2240F231
:103840005E312046FFF798FF054400224FF43571A2
:103850002046FFF791FF0544002280212046FFF714
:103860008BFF0544052001F0FFFE284638BD00000F
:103870002DE9F84345F2226399420DD04AF64443BC
:1038800099420BD042F61133994203D0514C490171
:10389000002307E0504CFAE74F4CF8E74E4CF6E7B0
:1038A0000133DBB29C4603EB43024C4D55F822201A
:1038B00082B19142F4D30CEB4C02484D05EB8202ED
:1038C00052689142ECD20CEB4C0205EB8202167A64
:1038D000577A01E0102701264FEA8409B9FBF1F17C
:1038E0001FFA81F9C5B2002240F291112846FFF774
:1038F00043FF804649F400424FF4C9712846FFF760
:103900003BFF8044002240F293112846FFF734FF2A
:10391000804401224FF4CA712846FFF72DFF8044EE
:103920003046FFF70FFF86B2320292B242F0080231
:1039300040F295112846FFF71FFF8044B20192B272
:1039400042F008024FF4CB712846FFF715FF00EB59
:1039500008063846FFF7F6FE820092B240F299114F
:103960002846FFF709FF0644012240F2911128463C
:10397000FFF702FF0644062240F604412846FFF7FF
:10398000FBFE064400224FF4D5712846FFF7F4FEF3
:10399000064409224FF4D5712846FFF7EDFE064490
:1039A000052001F061FE0B4B9C4209D048F24522F4
:1039B00040F201112846FFF7DFFE3044BDE8F883EE
:1039C00040F2452240F201112846FFF7D5FE30446F
:1039D000F4E700BF0000770100885801B4C5000873
:1039E00070B58446002301E00133DBB21C460D4A6A
:1039F00052F83300A0B18842F6D15FFA8CF5094E37
:103A000006EBC40632794FF481712846FFF7B4FE05
:103A1000044672794FF4A0612846FFF7ADFE2044BA
:103A200070BD00BFF0C5000808B5FFF7D9FF002042
:103A300008BD38B5C4B2022240F204512046FFF757
:103A40009BFE0546042240F202512046FFF794FEF9
:103A50000544012001F008FE002240F21A512046E0
:103A6000FFF78AFE0544002240F219512046FFF775
:103A700083FE054441F2100240F207512046FFF751
:103A80007BFE054441F210024FF4A1612046FFF78E
:103A900073FE0544202240F206512046FFF76CFEDB
:103AA0000544202240F205512046FFF765FE0544FB
:103AB000032240F21A512046FFF75EFE054403221E
:103AC00040F219512046FFF757FE284438BD38B55B
:103AD000012921D0C4B24FF4207240F2194120468E
:103AE000FFF74AFE05464FF4207240F21D41204682
:103AF000FFF742FE05444FF4207240F21141204688
:103B0000FFF73AFE05444FF4207240F2154120467B
:103B1000FFF732FE284438BDC4B24FF4407240F281
:103B200019412046FFF728FE05464FF4407240F247
:103B30001D412046FFF720FE05444FF4407240F23D
:103B400011412046FFF718FE05444FF4407240F241
:103B500015412046FFF710FE2844DCE708B5002198
:103B6000FFF7B5FF08BD08B50121FFF7B0FF08BD9D
:103B700008B50021FFF7ABFF08BD08B50121FFF72D
:103B8000A6FF08BD70B50546642933D801EB410393
:103B9000C1EB83132D4A82FB0302DC17C4EB6214D2
:103BA000E4B2BF2C27D900212846FFF790FF044636
:103BB000EDB240F2BF2240F219412846FFF7DCFD8A
:103BC000044440F2BF2240F21D412846FFF7D4FDD5
:103BD000044440F2BF2240F211412846FFF7CCFDD9
:103BE000044440F2BF2240F215412846FFF7C4FDCD
:103BF000204405E0642421B901212846FFF767FF2E
:103C000070BD00212846FFF762FF0646EDB244F47E
:103C10000074224640F219412846FFF7ADFD0644E4
:103C2000224640F21D412846FFF7A6FD06442246E3
:103C300040F211412846FFF79FFD0644224640F21C
:103C400015412846FFF798FD3044D9E71F85EB5111
:103C500070B582B0044620238DF8043021238DF8FE
:103C60000530022976D037D801292BD1C6B22022BF
:103C70004FF4D2613046FFF77FFD0546802240F2C7
:103C800091613046FFF778FD054421224FF4D3615E
:103C90003046FFF771FD0544802240F299613046BD
:103CA000FFF76AFD054400224FF4D0613046FFF76C
:103CB00063FD054400224FF4D1613046FFF75CFDFF
:103CC000054400E000250F224FF48061E0B2FFF7C9
:103CD00053FD284402B070BD0339C9B2012965D82B
:103CE000C6B220224FF4D2613046FFF745FD0546AB
:103CF000802240F291613046FFF73EFD05442122CB
:103D00004FF4D3613046FFF737FD0544802240F27F
:103D100099613046FFF730FD054420224FF4D06111
:103D20003046FFF729FD0544802240F2816130468C
:103D3000FFF722FD054421224FF4D1613046FFF701
:103D40001BFD0544802240F289613046FFF714FDD7
:103D50000544B8E7C6B200224FF4D2613046FFF7FF
:103D60000BFD054600224FF4D3613046FFF704FDFA
:103D7000054420224FF4D0613046FFF7FDFC054496
:103D8000802240F281613046FFF7F6FC0544212293
:103D90004FF4D1613046FFF7EFFC0544802240F23A
:103DA00089613046FFF7E8FC05448CE700258AE787
:103DB00008B500221146C0B2FFF7DEFC08BD08B509
:103DC00001F046FC08BD10B5044601F0FDFB0021E2
:103DD000E0B201F044FC10BD08B501F040FCC0B2F7
:103DE00008BD2DE9F8430F4615461C46DDF8209026
:103DF000DDF824804FF4E063A9F800304FF4E1636C
:103E0000A8F80030C6B2B9F800103046FFF7E4FF5A
:103E10002880B8F800103046FFF7DEFF20802B889E
:103E2000502B0CD02388512B16D0022F05D02B8875
:103E3000602B1ED02388612B28D0BDE8F8834FF477
:103E400008613046FFF7C8FF2880022FEAD04FF400
:103E50000863A9F80030E5E740F688013046FFF72F
:103E6000BBFF2080022FE0D040F68803A8F8003086
:103E7000DBE74FF410613046FFF7AEFF2880012FDB
:103E8000D8D04FF41063A9F80030D3E740F60811FA
:103E90003046FFF7A1FF2080012FCED040F6081357
:103EA000A8F80030C9E770B584B004460D4602ABEF
:103EB00001930DF10A03009303AB0DF10E020021F3
:103EC000FFF78FFF022D00F08280032D00F0B580F8
:103ED000012D2DD01423ADF80E301523ADF80C3084
:103EE000E6B230224FF440713046FFF745FC0546FC
:103EF00042F290224FF448713046FFF73DFC0544F2
:103F00004FF4207240F221313046FFF735FC054472
:103F100090224FF449713046FFF72EFC05444FF4D0
:103F2000207240F225313046FFF726FC05442DE093
:103F30001223ADF80E301323ADF80C30E6B20C228C
:103F40004FF440713046FFF717FC05464FF45252CC
:103F50004FF446713046FFF70FFC05444FF42072D2
:103F600040F21D313046FFF707FC05444FF4207244
:103F700040F219313046FFF7FFFB054440F2A7122B
:103F800040F219213046FFF7F7FB0544E4B2BDF8D3
:103F90000E20BDF80A102046FFF7EEFB0544BDF8E1
:103FA0000C20BDF808102046FFF7E6FB05448022F0
:103FB00040F201712046FFF7DFFB0544802240F20A
:103FC00009712046FFF7D8FB284404B070BD1023C8
:103FD000ADF80E301123ADF80C30E6B203224FF4E9
:103FE00040713046FFF7C8FB05464FF42A524FF4A4
:103FF00044713046FFF7C0FB054480224FF4457101
:104000003046FFF7B9FB05444FF4207240F21131FE
:104010003046FFF7B1FB05444FF4207240F21531F2
:104020003046FFF7A9FB054440F2A7124FF4067192
:104030003046FFF7A1FB0544A8E71423ADF80E3086
:104040001523ADF80C30E6B230224FF44071304603
:10405000FFF792FB054642F290224FF4487130463A
:10406000FFF78AFB05444FF4207240F221313046BD
:10407000FFF782FB054490224FF449713046FFF769
:104080007BFB05444FF4207240F225313046FFF7A8
:1040900073FB05447AE72DE9F047044690469A46BB
:1040A0005FFA81F90E0A01F08FFAE7B20022114699
:1040B0003846FFF761FB05462046FFF762FB514695
:1040C0002046FFF7D5FB054451462046FFF788FC04
:1040D000054409224FF48B613846FFF74DFB054438
:1040E00001224FF400713846FFF746FB0544D52204
:1040F0004FF404713846FFF73FFB05442046FFF7B5
:1041000098FC49462046FFF7A3FD31462046FFF7BD
:10411000CAFE41462046FFF735FD2846BDE8F08738
:104120002DE9F04184B004460E4615461F4602AB09
:1041300001930DF10A03009303AB0DF10E0201216F
:10414000FFF74FFEFEB15FFA84F8012E4ED0032236
:104150004FF46C614046FFF70FFB3A4640F6C161F1
:104160004046FFF709FBBDF80E204FF410614046B2
:10417000FFF702FB802240F601114046FFF7FCFAF0
:104180006023ADF80E30FDB1E6B2012D30D0032230
:1041900040F6C4613046FFF7EFFABDF8282040F63C
:1041A000C5613046FFF7E8FABDF80C2040F608116B
:1041B0003046FFF7E1FA802240F609113046FFF75A
:1041C000DBFA6123ADF80C30E4B2BDF80E20BDF887
:1041D0000A102046FFF7D0FABDF80C20BDF80810F1
:1041E0002046FFF7C9FA04B0BDE8F0810122AFE72D
:1041F0000122CDE72DE9F04F85B005468A4690466D
:104200001C46DDF838900F9F109E02AB01930DF114
:104210000A03009303AB0DF10E020221FFF7E1FD4B
:10422000BAF1000F50D07CB3E8B294F9002002F14B
:104230000C0394F901200C32920142EAC32212B21B
:1042400094F902300C3342EA430242F0010292B286
:104250004FF461618346FFF78FFA94F9032002F16E
:104260000C0394F904200C32920142EAC322BAF101
:10427000010F08BF42F00102B2FA82F2520940F681
:1042800011615846FFF778FA6FB1002409E004F68F
:10429000126137F8142089B2E8B2FFF76DFA0134E1
:1042A000A4B2122CF3D9ECB2BDF80E204FF4086181
:1042B0002046FFF761FA802240F681012046FFF791
:1042C0005BFA5023ADF80E30B8F1000F52D0B9F1BF
:1042D000000F2FD0ECB299F9002002F10C0399F9EC
:1042E00001200C32920142EAC32212B299F9023043
:1042F0000C3342EA430242F0010292B240F62661D8
:104300002046FFF739FA99F9032002F10C0399F9D5
:1043100004200C32920142EAC322B8F1010F08BF17
:1043200042F00102B2FA82F2520940F627612046B9
:10433000FFF722FA6EB1002409E004F6286136F88E
:10434000142089B2E8B2FFF717FA0134A4B2122C94
:10435000F3D9ECB2BDF80C2040F688012046FFF7F7
:104360000BFA802240F689012046FFF705FA512317
:10437000ADF80C30EDB2BDF80E20BDF80A1028469D
:10438000FFF7FAF9BDF80C20BDF808102846FFF732
:10439000F3F905B0BDE8F08F704710B582B0044660
:1043A00000238DF80730FCF7FBF88DF80740012259
:1043B00020210DF10700FCF741F9240A8DF8074090
:1043C000012224210DF10700FCF738F902B010BDDD
:1043D00000B583B000238DF80730FCF7E1F8012227
:1043E0000F210DF10700FCF74BF99DF8070003B012
:1043F0005DF804FB00B583B0012225210DF1070013
:10440000FCF73EF99DF8073063F07F038DF8073025
:10441000012225210DF10700FCF710F903B05DF82A
:1044200004FB000010B584B00446012224210DF1E4
:104430000700FCF725F90122282102A8FCF720F942
:10444000012229210DF10900FCF71AF901222A2184
:104450000DF10A00FCF714F901222B210DF10B00DC
:10446000FCF70EF901222C2103A8FCF709F901221F
:104470002D210DF10D00FCF703F99DF8073003F035
:104480003803083B182B0ED8DFE803F01A0D0D0D8A
:104490000D0D0D0D110D0D0D0D0D0D0D140D0D0D41
:1044A0000D0D0D0D17009FED177A002225E09FEDF1
:1044B000167AFAE79FED157AF7E79FED157AF4E79C
:1044C0009FED147AF1E751004B1C04A8034413F943
:1044D000080C04AB194411F9083C03EB002307EE68
:1044E000903AF8EEE77A67EE877AFDEEE77A17EE14
:1044F000903A24F812300132D2B2022AE3D904B041
:1045000010BD00BF8FC2753DEC51383E8FC2753E65
:1045100048E13A3F8FC2F53D10B582B00446002312
:104520008DF807304278017883780A4313438DF879
:104530000730012223210DF10700FCF77FF8E37813
:10454000227913438DF80730012221210DF1070054
:10455000FCF774F86379A27913438DF807300122D0
:1045600022210DF10700FCF769F802B010BD30B54B
:1045700083B000258DF80750FCF738F88DF801500E
:104580008DF8005040238DF802308DF8035001243F
:104590008DF805408DF806506846FFF7BDFF0323F0
:1045A0008DF80730224652210DF10700FCF746F83E
:1045B000C8238DF80730224654210DF10700FCF77F
:1045C0003DF845238DF80730224656210DF10700AE
:1045D000FCF734F8FC238DF8073022465A210DF100
:1045E0000700FCF72BF8A1238DF8073022465B214A
:1045F0000DF10700FCF722F88DF8074022465C21F8
:104600000DF10700FCF71AF822467B210DF1070097
:10461000FCF714F8224660210DF10700FCF70EF8B4
:1046200006238DF80730224661210DF10700FCF7C3
:1046300005F828238DF80730224662210DF1070086
:10464000FBF7FCFF11238DF80730224663210DF1A3
:104650000700FBF7F3FF03B030BD704710B582B021
:10466000044600238DF80730FBF79AFF8DF80740CA
:10467000012220210DF10700FBF7E0FF02B010BD81
:1046800000B583B000238DF80730FBF789FF0122C6
:104690000F210DF10700FBF7F3FF9DF8070003B0B2
:1046A0005DF804FB10B582B0044600238DF8073096
:1046B000012221210DF10700FBF7E2FF9DF80730F1
:1046C00003F0D0038DF8073023438DF80730012223
:1046D00021210DF10700FBF7B1FF02B010BD00B5BD
:1046E00085B000238DF80730012239210DF1070034
:1046F000FBF7C6FF0622272102A8FBF7C1FF05B082
:104700005DF804FB00B583B0012221210DF1070003
:10471000FBF7B6FF9DF8073043F040038DF80730F4
:10472000012221210DF10700FBF788FF03B05DF89E
:1047300004FB10B586B00446012220210DF10700CC
:10474000FBF79EFF0622292104A8FBF799FF00230F
:1047500008E006AA02EB430212F9081C22F8101C1A
:104760000133DBB2022BF4D99DF8073003F02003AC
:1047700013B9122100230CE04821FBE706AA02EB43
:10478000430232F9102C12FB01F224F813200133FA
:10479000DBB2022BF2D906B010BD10B582B00446D0
:1047A00000238DF80730012238210DF10700FBF7B7
:1047B00067FF22786178A3780A4313438DF80730A6
:1047C000012238210DF10700FBF738FF02B010BDC0
:1047D00030B583B000238DF80730FBF707FF402387
:1047E0008DF8043010238DF8053020238DF8063025
:1047F00001A8FFF7D2FF3F248DF8074001222221B4
:104800000DF10700FBF71AFF50238DF80730012246
:1048100038210DF10700FBF711FFAA238DF80730AF
:1048200001223B210DF10700FBF708FF0A238DF859
:10483000073001223C210DF10700FBF7FFFE4C235E
:104840008DF80730012230210DF10700FBF7F6FE4D
:1048500003238DF8073001223D210DF10700FBF7FE
:10486000EDFE7F258DF8075001223E210DF1070056
:10487000FBF7E4FE8DF80750012221460DF10700F9
:10488000FBF7DCFE03B030BD30B595B000240194D9
:10489000214B1A6C42F080521A641B6C03F0805357
:1048A0000193019B02941D4B1A6842F480421A60E6
:1048B0001B6803F480430293029B0123089309932E
:1048C0004FF480030F93082310934FF4A8731193B0
:1048D00002251295072313930E9508A8FDF784F976
:1048E0000F230393049505944FF4A05306934FF4BC
:1048F00080530793052103A8FDF7F6FBFDF724FD80
:10490000074BA3FB00308009FBF7FCFF0420FCF7FA
:104910000DF815B030BD00BF0038024000700040F7
:10492000D34D621008B5FBF73BFFFFF7ADFFFEF775
:10493000B9FE08BD0C4AD2F8FC3043F08073C2F8CF
:10494000FC300A4B00225A601A6802F001021A6019
:104950001A6842F001021A605A6800BF00BF00BF27
:104960005868801A704700BF00ED00E0001000E0BA
:1049700030B5ADF5005D85B0FBF712FFFFF7DAFF4C
:104980004BF68032502140F2033000F0B9FC032096
:1049900000F0A4FD012000F07BFD4FF48052664939
:1049A000664800F005FD664B187800F067FDFBF7E0
:1049B0008BFE00F033F9634B634A012101A800F03C
:1049C00057FE624B19786248FEF7DCFC9DE0614BB4
:1049D00000225A605B685D4B1B78022B24D05E4B33
:1049E00000221A7097E0544B33F91420534B23F8EC
:1049F00014200134B4F5006F19D214F0010FF2D075
:104A00004D4B33F9140001F08FF800224FF07C5326
:104A100006F0F2F901F01AF90DF58053103303EBAB
:104A2000850318600135E4E700252C46E2E74FF4E2
:104A3000806304AA0DF580511031A2F10C0000F042
:104A400023FE00210B4600E00133B3F5006FC6D210
:104A500013F0010FF8D004AA02EB8102D2ED007A24
:104A6000FEEEE87A354A17EE900A22F8130001317B
:104A7000EAE7314B33F91420304B23F8142001348A
:104A8000B4F5805F16D214F0010FF2D02A4B33F93F
:104A9000140001F049F800224FF07C5306F0ACF905
:104AA00001F0D4F80DF58053103303EB8503186043
:104AB0000135E4E74FF4806304AA0DF5805110310D
:104AC000A2F10C0000F0E0FD00254FF4006400E0CE
:104AD0000134B4F5805F13D214F0010FF8D004ABA9
:104AE00003EB8503186801F031F800221B4B06F038
:104AF00083F901F083F8114B23F814000135E7E73F
:104B0000154B00221A7000F08FF8134B1B78DBB2A4
:104B1000012B3FF45CAF104B1B78DBB2022BF2D1C0
:104B20000C4B00225A605B68084B1B78022BE7D1C4
:104B300000254FF40064A3E7FC040020FC240020BF
:104B4000AC0000200045002074C60008AD00002025
:104B500040C60008001000E0FC4400200000E040D7
:104B6000014B02221A707047FC440020014B0122C5
:104B70001A707047FC440020704708B50120FCF70C
:104B80002FFC08BD08B5024B986BFCF789F908BDEE
:104B9000EC45002008B5024B586BFCF781F908BDC5
:104BA000EC4500207047FEE7FEE7FEE7FEE77047B2
:104BB0007047704708B5FBF70DFEFBF7D6FE08BD42
:104BC00038B500240CE0651C29460F48FEF7DAFBD7
:104BD00000230E4A224401210D4800F05BF92C46C7
:104BE000042CF0D900240CE0651C29460948FEF786
:104BF000C9FB0023084A22440121054800F04AF974
:104C00002C46042CF0D938BD88C600081045002079
:104C1000ACC60008B0C600081845002008B5012140
:104C20000020FBF771FC08BD504B1B78002B00F0F7
:104C30009B8000B583B04D4B1B78013B0F2B0FD8E9
:104C4000DFE803F008141927353E474E59646F78A2
:104C50007B7E868E4FF480524549464800F0A8FB83
:104C6000424B00221A7003B05DF804FB424B1878E7
:104C700000F004FCF4E7002000F0DEFB4FF4FA50F3
:104C800000F036FC4FF4805239493A4800F090FB6E
:104C9000E6E7002000F0D0FB4BF6803000F028FC67
:104CA0004FF480523249334800F082FBD8E7334B4F
:104CB0001B88334A12880121084600F0F3FBCFE736
:104CC0002E4B1B882E4A12880221084600F0EAFB70
:104CD000C6E700231A461946184600F0E3FBBFE773
:104CE000284B0193284B0093284B294A0121084661
:104CF00000F0E4FBB4E7234B0193234B0093244BD8
:104D0000224A0121084600F0D9FBA9E71D4B019377
:104D10001D4B00931F4B204A0121084600F0CEFB9B
:104D20009EE700200190009003460246014600F0F5
:104D3000C5FB95E700F058FB92E700F069FB8FE7B1
:104D400000F052FB154B00221A7000F061FB87E760
:104D500000F04AFB114B01221A7000F059FB7FE76B
:104D6000002000F069FB7BE7704700BF244500206E
:104D7000FC040020FC240020AC00002010010020D6
:104D80000E010020D8000020B00000200801002003
:104D9000000100201845002010450020AD00002033
:104DA000012800D0704710B582B00020FBF7EEFB61
:104DB000012808D0FBF716FD234B1B68C01A1428E6
:104DC00006D802B010BDFBF70DFD1F4B1860F8E7C9
:104DD00000F00AFB1D48FEF7D5FA002407E01C4B43
:104DE00003EBC4035A681B48FEF7CCFA0134184B96
:104DF00013F834100029F2D100230DF107021946EF
:104E0000154800F047F89DF80720144B1A701B78DE
:104E1000DBB2022B08D00A2B12D000F0F9FAFBF714
:104E2000E1FC094B1860CCE70D4C21780D48FEF7EA
:104E3000A9FA0023224619460B4800F02BF8ECE7AC
:104E4000FFF7BEFEE9E700BF20450020C4C600080A
:104E50008CC80008DCC60008E8C60008244500200D
:104E6000AC000020F0C6000804C7000808B501F037
:104E700055F8064BC35613F0040FF8D02D28F6D082
:104E8000034B1B68596803F005F808BD7DC900088D
:104E9000140100200FB410B584B006AB53F8040B16
:104EA00001930FE0FFF7E2FF03A91D4801F0DEFFC9
:104EB0000028F7D09DF80C302370019B1A1D019239
:104EC000186838B3FEF75EFA01990B1D01930A6862
:104ED00001F1080301934C68012A06D0022A10D080
:104EE000002AEAD1E0E7FFF7C1FF03A90C4801F06F
:104EF000BDFF0028F7D09DF90C302370DDE7FFF7E8
:104F0000B5FF02A9074801F0B1FF0028F7D0029BC6
:104F10002360D2E704B0BDE8104004B0704700BF82
:104F200014C9000818C900082DE9F04389B000260B
:104F30000196234C236B43F002032363236B03F09E
:104F400002030193019B4FF00109CDF81090022755
:104F5000069705964FF48058CDF80C80194D03A99B
:104F60002846FCF78FF804974FF400530393052766
:104F7000079703A92846FCF785F84FF400430393ED
:104F8000079703A92846FCF77DF84FF48043039365
:104F9000079703A92846FCF775F84A464146284674
:104FA000FCF702FA0296236C43F480432364236CDB
:104FB00003F480430293029B09B0BDE8F08300BF75
:104FC00000380240000402402DE9F04F8DB000246B
:104FD0000194694D2B6B43F001032B632B6B03F0A2
:104FE00001030193019B02942B6B43F004032B6399
:104FF0002B6B03F004030293029B03942B6B43F08F
:1050000004032B632B6B03F004030393039B0494AF
:105010002B6B43F004032B632B6B03F0040304930B
:10502000049B022308930A930994102707970626E6
:105030000B9607A95148FCF725F84FF48069CDF885
:105040001C900B96DFF844B107A95846FCF71AF8F4
:105050004FF4805307930B9607A95846FCF712F8B4
:105060004FF40068CDF81C804FF0050ACDF82CA055
:1050700007A95846FCF706F8802307930B9607A963
:105080005846FBF7FFFF05942B6C43F400432B6459
:105090002B6C03F400430593059B06942B6B43F4A0
:1050A00000132B632B6B03F400130693069BDFF8AE
:1050B000E0B0CBF80440CBF80840CBF80C40CBF87C
:1050C0001090CBF814804FF40050CBF818004FF438
:1050D0008071CBF81C104FF40032CBF82020CBF8B5
:1050E00024400323CBF82830CBF82C40CBF83040B9
:1050F00005F520551035CBF80050214D4FF0806C50
:10510000C5F804C04FF0400CC5F808C0EC60C5F805
:105110001090C5F81480A861E9612A6204226A62CD
:10512000AB62EC622C63174B2B605846FBF7F0FD2B
:105130002846FBF7EDFD5846FBF7A4FC2846FBF795
:10514000A1FC114BC3F838B0CBF838305D63AB63CA
:10515000224631460B20FBF777FB22465146384664
:10516000FBF772FB0B20FBF7B5FB3846FBF7B2FBF6
:105170000DB0BDE8F08F00BF0038024000000240D3
:105180008C45002088600240EC4500200008024069
:105190002C45002008B51148114B0360DA6922F450
:1051A0008062DA6100238360C360036101220262CE
:1051B000C3610C4B1B684361082383614FF4407348
:1051C0004360FCF737F930B10448FCF7F7FB0520E2
:1051D000FBF70EFB08BDFFF7F7FEF5E7EC450020F7
:1051E000003C00402845002008B5FFF79DFE0D4813
:1051F0000D4B0360002383604FF4827242604FF4D2
:105200000062C260036143612822C261036283625B
:105210000722C2624FF4007282614362FDF792FA84
:1052200008BD00BF304600200038004008B50348E4
:10523000FDF774FBFFF7D8FF08BD00BF3046002024
:1052400030B583B0C0F30E43ADF80030ADF80200C6
:105250004FF6FF73ADF80430ADF806100D4D002287
:105260004FF480512846FCF79FF84FF480530422F6
:1052700069460948FDF77EFB044601224FF4805140
:105280002846FCF791F80CB903B030BDFFF7CEFF0C
:10529000FAE700BF000402403046002070B586B037
:1052A000030C43F40043ADF81030ADF812004FF694
:1052B000FF73ADF814300022ADF816200E4D4FF4F8
:1052C00080512846FCF770F84FF48056009604236E
:1052D00002AA04A90948FDF749FC04460122314607
:1052E0002846FCF761F81CB9BDF80E0006B070BD89
:1052F000FFF79CFFF8E700BF0004024030460020A3
:105300002DE9F04184B0074688461546FF26002364
:1053100001E00133DBB2072B06D81F4C54F82340C1
:10532000AC42F6D11E46F4E76846FDF779F916F06F
:10533000070F1AD001230093184B53F8263001931E
:10534000174B53F8263002936846FDF703F8154BC8
:105350001D60154B9B683420984745F20213984214
:105360000ED0012004B0BDE8F081012300934FF47A
:1053700081730193032302936846FCF7EBFFE6E792
:10538000094B0A4A13601C682B46424639463420B2
:10539000A0470020E6E700BF1CC900083CC9000880
:1053A0005CC9000828450020100000208846002025
:1053B00038B5044615461346B2F5E04F28BF4FF402
:1053C000E0430A4601460648FCF7C2F8054B1B6855
:1053D000DB682A46214634209847002038BD00BFAC
:1053E000EC4500208846002010B5074B1B681B6960
:1053F0003420984710B10124204610BD04460348CC
:10540000FCF79CF9F8E700BF88460020EC45002037
:1054100010B5074B1B685B693420984710B1012415
:10542000204610BD04460348FCF7DEF9F8E700BF4C
:1054300088460020EC45002038B504460C48FCF7AF
:1054400033FA0C4B1B689B6921463420984760B99E
:105450000546012C0AD10120FBF7CAF900224FF4BE
:1054600000610548FBF7A0FF00E00125284638BD94
:10547000EC450020884600200010024008B5014697
:10548000024B1B681B6A3420984708BD88460020E1
:1054900008B50146024B1B685B6A3420984708BD7B
:1054A0008846002000B583B0009313460A460146A3
:1054B0003420FEF735FE03B05DF804FB10B584B070
:1054C000079C0294069C0194009313460A460146E9
:1054D0003420FEF78FFE04B010BD000008B5014671
:1054E000024B1B689B6A3420984708BD8846002001
:1054F00030B585B00446FF25002301E00133DBB25F
:10550000072B06D8184A52F82320A242F6D11D468E
:10551000F4E76846FDF784F815F0070F18D001236B
:105520000093124B53F825300193114B53F825305B
:1055300002936846FCF70EFF0E4B1C60FFF72AFE35
:105540000D4B1B68DB6921463420984705B030BD00
:10555000012300934FF48173019303230293684660
:10556000FCF7F8FEE8E700BF1CC900083CC90008CA
:105570005CC90008284500208846002008B502685C
:10558000034B9A4200D008BDFFF7EAFAFBE700BFE1
:10559000003C004008B50268034B9A4200D008BDA9
:1055A000FFF7E4FAFBE700BF003C00407047000053
:1055B00008B50268034B9A4200D008BDFFF7F6FF1A
:1055C000FBE700BF003C00402DE9F04186B000271A
:1055D00000971D4B1A6B42F010021A631B6B03F00D
:1055E00010030093009B4FF48068CDF804800126DF
:1055F0000296022304930397144C01A92046FBF75B
:1056000041FD4FF40065019501A92046FBF73AFDE5
:10561000FFF7EAFD324641462046FBF7C5FE3A4613
:1056200029462046FBF7C0FE3220FBF7E1F8324660
:1056300029462046FBF7B8FE0520FBF7D9F8FFF70F
:10564000A9FD06B0BDE8F08100380240001002401C
:10565000704708B508461146FFF7F2FD08BD08B5CA
:105660000846FFF71BFE08BD08B5FBF7C1F808BDEB
:1056700010B58260016004460A011846002100F05E
:10568000A2FC606010BD00BF2DE9F047D0E90156D3
:105690004FEA930C03F0030E4FEA0C19076802EB74
:1056A000090A0EF1FF381436103516ED054A16EDCD
:1056B000042A56ED032A16ED023A56ED013A55ED4D
:1056C000045A15ED035A15ED027A55ED017ABCF135
:1056D000000F00F0D48001F1100002F110036446C5
:1056E00010ED046A62EE254A64EE066A22EE855ADF
:1056F00076EEA46A63EE074A76EE856A23EEA75A31
:1057000076EEA47A22EE061A77EE857A62EEA51A74
:1057100043ED047A50ED034A64EE246A23EE275ADF
:1057200076EE816A63EE875A36EEA17A62EE241A2B
:1057300037EE057A22EE866A37EE257A63EEA77A8F
:1057400003ED037A10ED025A64EE055A63EE076A20
:1057500075EEA15A62EE051A75EE865A62EEA44AFB
:1057600075EEA65A23EE877A75EEA77A013C43EDD3
:10577000027A50ED015A24EE256A63EE276A36EE6E
:10578000216A00F1100036EE246A03F1100336EEB0
:10579000266A36EE077A03ED057AA1D149445346CD
:1057A000BEF1000F47D0D1ED004A22EE256A64EE2B
:1057B000241A62EE856A36EE215A23EE076A35EE28
:1057C000265A63EEA77A35EE066A36EE276A83ED2F
:1057D000006AB8F1000F40D091ED015A62EE247AD0
:1057E00065EE041A62EEA56A77EEA15A63EE067AB8
:1057F00075EEA65A23EE877A75EEA77AB8F1010FF7
:1058000077EE277AC3ED017A30D0D1ED025A25EE3A
:10581000022A64EE256A62EEA42A76EE826A27EEF8
:10582000833A76EEA26A63EE863A76EE836A36EEC5
:10583000A37A83ED027A013F45ED045A05ED035A40
:1058400005ED027A45ED017A06F1140605F1100521
:1058500011467FF42AAFBDE8F087F0EE477AB0EE4C
:10586000655AB0EE467AF0EE645AE4E7B0EE677A35
:10587000F0EE455AF0EE467AB0EE645ADBE7134696
:105880008EE700BF81F0004102E000BF83F00043DB
:1058900030B54FEA41044FEA430594EA050F08BFCB
:1058A00090EA020F1FBF54EA000C55EA020C7FEA8F
:1058B000645C7FEA655C00F0E2804FEA5454D4EB0C
:1058C0005555B8BF6D420CDD2C4480EA020281EAD6
:1058D000030382EA000083EA010180EA020281EA0E
:1058E0000303362D88BF30BD11F0004F4FEA013160
:1058F0004FF4801C4CEA113102D0404261EB41016F
:1059000013F0004F4FEA03334CEA133302D05242F4
:1059100063EB430394EA050F00F0A780A4F10104B0
:10592000D5F1200E0DDB02FA0EFC22FA05F28018EA
:1059300041F1000103FA0EF2801843FA05F35941D0
:105940000EE0A5F120050EF1200E012A03FA0EFC4F
:1059500028BF4CF0020C43FA05F3C01851EBE37179
:1059600001F0004507D54FF0000EDCF1000C7EEB96
:1059700000006EEB0101B1F5801F1BD3B1F5001FD4
:105980000CD349085FEA30004FEA3C0C04F10104F3
:105990004FEA445212F5800F80F09A80BCF1004F1C
:1059A00008BF5FEA500C50F1000041EB045141EA9E
:1059B000050130BD5FEA4C0C404141EB0101013C67
:1059C00028BFB1F5801FE9D291F0000F04BF014656
:1059D0000020B1FA81F308BF2033A3F10B03B3F128
:1059E00020020CDA0C3208DD02F1140CC2F10C02B8
:1059F00001FA0CF021FA02F10CE002F11402D8BF16
:105A0000C2F1200C01FA02F120FA0CFCDCBF41EAE1
:105A10000C019040E41AA2BF01EB0451294330BDB0
:105A20006FEA04041F3C1CDA0C340EDC04F114048D
:105A3000C4F1200220FA04F001FA02F340EA030064
:105A400021FA04F345EA030130BDC4F10C04C4F1AA
:105A5000200220FA02F001FA04F340EA030029468A
:105A600030BD21FA04F0294630BD94F0000F83F4D4
:105A7000801306BF81F480110134013D4EE77FEAB7
:105A8000645C18BF7FEA655C29D094EA050F08BF03
:105A900090EA020F05D054EA000C04BF19461046E4
:105AA00030BD91EA030F1EBF0021002030BD5FEA28
:105AB000545C05D14000494128BF41F0004130BD50
:105AC00014F580043CBF01F5801130BD01F00045A4
