:020000040800F2
:1000000000000220B90200087D1400087F140008D7
:100010008114000883140008851400080000000003
:10002000000000000000000000000000871400082D
:1000300089140008000000008B1400088D140008CB
:10004000E5030008E5030008E5030008E5030008F0
:10005000E5030008E503000853140008E503000861
:10006000E5030008E5030008E50300085D14000847
:10007000E5030008E5030008E5030008E5030008C0
:100080006D140008E5030008E5030008E503000817
:10009000E5030008E5030008E5030008E5030008A0
:1000A000E5030008E5030008E5030008E503000890
:1000B000E5030008E5030008E5030008E503000880
:1000C000E5030008E5030008E5030008E503000870
:1000D000E5030008E5030008E5030008E503000860
:1000E000E5030008E5030008E5030008E503000850
:1000F000E5030008E5030008E5030008E503000840
:10010000E5030008E5030008E5030008E50300082F
:10011000E5030008E5030008E5030008E50300081F
:10012000E5030008E5030008E5030008E50300080F
:10013000E5030008E5030008E5030008E5030008FF
:10014000E5030008E5030008E5030008E5030008EF
:10015000E5030008E5030008E5030008E5030008DF
:10016000E5030008E5030008E5030008E5030008CF
:10017000E5030008E5030008E503000800000000AF
:10018000E5030008E503000800B583B000F074FF44
:10019000384B394A1360394A1360394900E0214627
:1001A000384B99420BD20A684B6801F10C048868FD
:1001B0009842F4D952F8041B43F8041BF8E72E4B7D
:1001C0001A68314B9A4200D0FEE72C4B1A682F4B2D
:1001D0009A42F9D1274B2E4A13602E4A13602E4AB9
:1001E00005E0002043F8040B9A42FAD80A462B4B4C
:1001F0009A4204D2114651F8083B5268F4E7244B66
:100200001B6813B9234B1B6803B1FEE701F088F8A4
:10021000694601A800F0C0FE214C224BE41AA4104C
:10022000002504E01F4B53F8253098470135AC42B8
:10023000F8DC1D4C1D4BE41AA410002504E01B4BF8
:1002400053F8253098470135AC42F8DC0099019805
:1002500001F08AF80546164C164BE41AA41004E087
:10026000013C144B53F824309847002CF8DC284606
:1002700000F064FEBABADECA00000020740000205C
:10028000E8030008000400087856341232547698C7
:1002900078000020D40200200004000810040008A8
:1002A00010040008100400081004000810040008DE
:1002B000100400081004000808B5FFF765FF00BE31
:1002C000FEE71EF0040F0CBFEFF30880EFF3098088
:1002D0007146414A10472DE9F04182B004468846F4
:1002E000124B5E6B9F6B9D6A1B6B13F0020F03D06A
:1002F0000E4BDB6A002B0CDB0D4800F05FFECDF8E7
:1003000000803B4632462946204600F0C1FE00BE32
:10031000FEE74BF6AB6100F035FF0028ECD0034B55
:100320004FF00042DA6202B0BDE8F08100ED00E07B
:100330002C25000800BEFEE71EF0040F0CBFEFF3F3
:100340000880EFF309807146244A10472DE9F041F7
:1003500082B004468846084B5E6B9F6B9D6A0748D7
:1003600000F02CFECDF800803B4632462946204660
:1003700000F08EFE00BEFEE700ED00E03C25000828
:100380001EF0040F0CBFEFF30880EFF309807146F5
:10039000134A10472DE9F04182B004468846084BC5
:1003A0005E6B9F6B9D6A074800F008FECDF80080E9
:1003B0003B4632462946204600F06AFE00BEFEE774
:1003C00000ED00E04825000800BEFEE700BEFEE7A5
:1003D00000BEFEE770470000D70200084D0300088A
:0803E0009503000800BEFEE7D2
:1003E8006C26000800000020780000206C26000819
:1003F800000000100000001078000020D802002043
:080408000000001000000010CC
:1004100010B50446074B1868074BA3FB0030800952
:1004200000F098F8002221464FF0FF3000F04CF821
:10043000002010BD0C000020D34D621008B50B4BFE
:100440001A6842F400721A601A6842F480621A60F4
:100450001A6842F480721A60032000F017F80F2027
:10046000FFF7D6FF00F0F4FF002008BD003C02407B
:10047000024A136801331360704700BF0C0100206B
:10048000014B1868704700BF0C01002010B50446EE
:10049000C31E042B0FD80A4AD36823F4E0631B045D
:1004A0001B0C240204F4E064234343F0BF6343F4D1
:1004B0000033D36010BDA421024800F075FDEAE7C7
:1004C00000ED00E05C23000870B505460C461646BA
:1004D0000F2A0FD80F2C12D81B4BDB68C3F3022353
:1004E000C3F10702042A28BF0422191D06290BD9CB
:1004F000033B0AE0BC21154800F056FDEAE7BD21A8
:10050000124800F051FDE7E700234FF0FF3101FAF8
:1005100002F224EA02049C4001FA03F326EA0306ED
:100520003443002D08DB2401E4B205F1604505F5F4
:10053000614585F8004370BD05F00F052401E4B264
:10054000034B5C55F7E700BF00ED00E05C230008BB
:1005500014ED00E00138B0F1807F0AD2064B5860FC
:10056000064AF02182F823100020986007221A60C2
:1005700070470120704700BF10E000E000ED00E090
:1005800010B50446042800D038B9042C0BD0094A11
:10059000136823F00403136010BD40F2B311064842
:1005A00000F002FDF1E7034A136843F0040313600F
:1005B000F2E700BF10E000E05C230008704708B5D8
:1005C000FFF7FCFF08BD0000F0B583B00446002330
:1005D0000193724B1D68724BA3FB0535AD0A876D05
:1005E0003E68C26D08239340334210D003681A68F6
:1005F00012F0040F0BD01A6822F004021A60C26DC8
:1006000008239340BB60436D43F001034365E26DF3
:10061000644B9340334209D02268526912F0800F34
:1006200004D0BB60636D43F002036365E26D5E4B13
:100630009340334209D02268126812F0020F04D0AE
:10064000BB60636D43F004036365E26D1023934068
:10065000334224D02268126812F0080F1FD0BB600A
:1006600023681A6812F4802F0DD01B6813F4002F32
:1006700004D1236C9BB12046984710E0A36C73B162
:10068000204698470BE01A6812F4807F03D11A685D
:1006900022F008021A60236C0BB120469847E26DE5
:1006A00020239340334255D02268126812F0100F75
:1006B00050D0BB6094F83530DBB2052B0ED02368E8
:1006C0001A6812F4802F33D01B6813F4002F2AD13C
:1006D000636C002B3ED0204698473BE022681368AD
:1006E00023F0160313602268536923F080035361DB
:1006F000236CA3B12268136823F008031360E26D32
:100700003F239340BB60002384F83430012384F8F6
:100710003530236D002B3FD0204698473CE0A36C3A
:10072000002BE7D1EBE7E36BA3B12046984711E03C
:100730001A6812F4807F09D11A6822F010021A6038
:10074000002384F83430012384F83530E36B0BB197
:1007500020469847636DFBB1636D13F0010F17D00E
:10076000052384F835302268136823F001031360F1
:10077000019B01330193AB4204D823681B6813F03B
:10078000010FF5D1002384F83430012384F835308B
:10079000E36C0BB12046984703B0F0BD0C0000207D
:1007A000B5814E1B010080000400800070470000EE
:1007B00008B5054B5B69034200D108BD024B586187
:1007C000FFF7F4FFF9E700BF003C014030B583B00C
:1007D000044603680F2B29D8236813F0010F3DD07E
:1007E0006368012B01D9052B25D1A64B9B6803F02B
:1007F0000C03042B29D0A34B9B6803F00C03082B9C
:100800001ED02279A04B1A706368002B50D0FFF7DE
:1008100037FE05469B4B1B6813F4003F1ED1FFF7C4
:100820002FFE401B6428F5D90320F4E1F5219748F9
:1008300000F0BAFBD0E7FA21944800F0B5FBD4E70A
:10084000904B5B6813F4800FDBD08E4B1B6813F466
:10085000003F03D06368002B00F0D881236813F0B9
:10086000020F5ED0E368012B31D823691F2B34D8E7
:10087000844B9B6813F00C0F3AD0824B9B6803F0BB
:100880000C03082B2FD0E368002B7BD0804B012278
:100890001A60FFF7F5FD05467A4B1B6813F0020F4F
:1008A0005DD1FFF7EDFD401B0228F5D90320B2E131
:1008B000FFF7E6FD0546734B1B6813F4003FCDD0F0
:1008C000FFF7DEFD401B6428F5D90320A3E14FF4B8
:1008D00096716E4800F068FBC7E740F22D116B4837
:1008E00000F062FBC4E7674B5B6813F4800FCAD16A
:1008F000644B1B6813F0020F03D0E368012B40F038
:100900008781604B1A6822F0F8022169F82393FA74
:10091000A3F313B3B3FA83F301FA03F31343594A6E
:100920001360236813F0080F56D06369012B3BD87E
:100930006369002B3ED0574B01221A60FFF7A0FDE0
:100940000546504B5B6F13F0020F45D1FFF798FD42
:10095000401B0228F5D903205DE12023DCE7494B49
:100960001A6822F0F8022169F82393FAA3F33BB145
:10097000B3FA83F301FA03F31343424A1360D0E757
:100980002023F7E7424B00221A60FFF779FD054666
:100990003C4B1B6813F0020FC3D0FFF771FD401BE7
:1009A0000228F5D9032036E140F26D11374800F0F6
:1009B000FBFABDE7374B00221A60FFF761FD0546E1
:1009C000304B5B6F13F0020F06D0FFF759FD401B51
:1009D0000228F5D903201EE1236813F0040F5FD02D
:1009E000A368012B01D9052B1FD100230193254BAF
:1009F0001A6C42F080521A641B6C03F0805301930E
:100A0000019B254A136843F480731360FFF738FD98
:100A10000546214B1B6813F4807F0CD1FFF730FD96
:100A2000401B0228F5D90320F5E040F29711174842
:100A300000F0BAFAD9E7227A184B1A70A36883B18A
:100A4000FFF71EFD05460F4B1B6F13F0020F27D15A
:100A5000FFF716FD401B41F288339842F3D903207B
:100A6000D9E0FFF70DFD0546064B1B6F13F0020F93
:100A700016D0FFF705FD401B41F288339842F3D9A9
:100A80000320C8E00038024002380240A0230008DA
:100A900000004742800E474200700040703802401C
:100AA000A369022B39D8A369002B00F0B3805C4AFC
:100AB000926802F00C02082A00F0AF80022B40F08E
:100AC0009180E36913B1B3F5800F2CD1236A3F2BDA
:100AD0002FD8636A323BB3F5BF7F30D8A36A022BAD
:100AE00005D0042B03D0062B01D0082B2DD1E36AAF
:100AF000043B0B2B2FD84B4B00221A60FFF7C0FC96
:100B00000546474B1B6813F0007F2AD0FFF7B8FC5F
:100B1000401B0228F5D903207DE04FF4E6714248DE
:100B200000F042FABFE740F2D5113F4800F03CFA2E
:100B3000CCE74FF4EB713C4800F036FAC9E740F2DD
:100B4000D711394800F030FAC8E74FF4EC71364855
:100B500000F02AFACBE740F2D911334800F024FA2A
:100B6000C9E7E369226A1343616A47F6C07292FAE1
:100B7000A2F27AB3B2FA82F201FA02F21343A26A43
:100B80005208013A4FF4403191FAA1F121B3B1FA80
:100B900081F18A401343E16A4FF0706292FAA2F247
:100BA000E2B1B2FA82F201FA02F213431C4A536034
:100BB0001C4B01221A60FFF763FC0446184B1B68AC
:100BC00013F0007F0CD1FFF75BFC001B0228F5D966
:100BD000032020E02022CFE72021DAE72022E2E7ED
:100BE000002018E00F4B00221A60FFF749FC044672
:100BF0000B4B1B6813F0007F06D0FFF741FC001B76
:100C00000228F5D9032006E0002004E0012002E0DC
:100C1000012000E0002003B030BD0120FBE700BF51
:100C20000038024060004742A0230008254B9B6823
:100C300003F00C03042B41D0082B41D1214B586801
:100C400000F03F005B6813F4800F22D01E4AB2FB15
:100C5000F0F21C4B586847F6C073184093FAA3F3A0
:100C6000ABB1B3FA83F3D84000FB02F0154B5B68DD
:100C700003F440334FF4403292FAA2F2E2B1B2FAF6
:100C800082F2D34001335B00B0FBF3F070472023C6
:100C9000E9E70E4AB2FBF0F20A4B586847F6C07318
:100CA000184093FAA3F32BB1B3FA83F3D84000FBB7
:100CB00002F0DBE72023F9E72022E2E70248704751
:100CC000024870470038024000127A000024F40005
:100CD00070B504460D460368013B0E2B5ED8072D08
:100CE00062D88E4B1B6803F00F03AB4208D2EBB205
:100CF0008A4A1370136803F00F03AB4240F0088177
:100D0000236813F0020F18D0A3687BB1802B0DD09D
:100D1000902B0BD0A02B09D0B02B07D0C02B05D027
:100D2000D02B03D0E02B01D0F02B43D17C4A936829
:100D300023F0F003A1680B439360236813F0010FC5
:100D40007FD06368032B3BD86368012B3ED09A1E8B
:100D5000012A42D9724A126812F0020F00F0DA80BA
:100D60006F498A6822F0030213438B60FFF788FB08
:100D700006466368012B37D0022B44D0032B51D099
:100D8000674B9B6813F00C0F5BD0FFF779FB801B60
:100D900041F288339842F3D90320AAE040F2372188
:100DA000604800F001F99AE74FF40E715D4800F0D9
:100DB000FBF896E740F24F215A4800F0F5F8B5E706
:100DC00040F25621574800F0EFF8BDE7544A126848
:100DD00012F4003FC4D101208BE0514A126812F096
:100DE000007FBDD1012084E04D4B9B6803F00C03D4
:100DF000042B26D0FFF744FB801B41F28833984236
:100E0000F2D9032075E0464B9B6803F00C03082BD6
:100E100017D0FFF735FB801B41F288339842F2D997
:100E2000032066E03E4B9B6803F00C030C2B08D0BC
:100E3000FFF726FB801B41F288339842F2D903204A
:100E400057E0364B1B6803F00F03AB4207D9EAB2F9
:100E5000324B1A701B6803F00F03AB425CD123685E
:100E600013F0040F14D0E3685BB1B3F5805F08D0D2
:100E7000B3F5A05F05D0B3F5C05F02D0B3F5E05F76
:100E800038D1274A936823F4E053E1680B43936019
:100E9000236813F0080F15D023695BB1B3F5805FA9
:100EA00008D0B3F5A05F05D0B3F5C05F02D0B3F5AD
:100EB000E05F25D11A4A936823F46043216943EA2D
:100EC000C1039360FFF7B2FE154B9A6802F0F0027F
:100ED000F02393FAA3F3CBB1B3FA83F322FA03F32B
:100EE000114AD35CD840114B18600F20FFF790FADD
:100EF000002070BD4FF42D710A4800F055F8C0E78E
:100F000040F2BB21074800F04FF8D3E72023E5E784
:100F10000120EEE70120ECE70120EAE7003C024077
:100F200000380240A0230008902300080C00002095
:100F3000014B1868704700BF0C000020FEE700005E
:100F400008B5034800F054F80120FFF7F7FF00BF91
:100F5000D023000808B503460C4A12685AB10B4A60
:100F60001068033323F003030344094A934206D86D
:100F7000064A136008BD054A06491160EFE700F014
:100F800055FD0C2303604FF0FF30F3E77C00002099
:100F900000FC0120D802002001230360014B0B60FC
:100FA000704700BF0400002008B50A460146024809
:100FB00000F004F8FFF7C4FFE42300080FB400B505
:100FC00083B004AB53F8042B01938021074800F051
:100FD00067FD002804DC03B05DF804EB04B0704743
:100FE0000146024800F044F8F5E700BF8400002005
:100FF00010B5044600F020FD0146204600F038F808
:101000000121024800F034F810BD00BFA8240008F8
:101010002DE9F04385B004460F46435633BB042503
:1010200028462146ABBE0446384605B0BDE8F083ED
:1010300004AA1344002203F8102C4FF00408E946D8
:1010400040464946ABBE8046761B002EECD0354666
:10105000102E28BF10250023AB42E9D214F9011B42
:1010600004AA1A4402F8101C0133F5E70E46ECE717
:1010700008B5FFF7CDFF08BD08B500F093F8024AA8
:10108000024B9A6008BD00BF0000000800ED00E0C0
:10109000F8B504460D4617461E462748FFF78EFF53
:1010A00021682648FFF78AFF61682548FFF786FF19
:1010B000A1682448FFF782FFE1682348FFF77EFF1D
:1010C00021692248FFF77AFF61692148FFF776FF1F
:1010D000A1692048FFF772FFE1691F48FFF76EFF23
:1010E0001E48FFF76BFF29461D48FFF767FF1D4CA1
:1010F000E16A1D48FFF762FF216B1C48FFF75EFFA6
:10110000E16B1B48FFF75AFF15F0800F0AD115F469
:10111000004F0CD11748FFF751FF06991648FFF70B
:101120004DFFF8BD39461548FFF748FFEFE7314658
:101130001348FFF743FFEDE71024000820240008C0
:1011400030240008402400085024000860240008CF
:10115000702400088024000890240008A0240008BF
:10116000AC24000800ED00E0BC240008CC240008FA
:10117000DC2400080C25000814250008EC240008D5
:10118000FC24000883691A888A4201D00020704735
:101190000268033A012A01D90020704702338361B3
:1011A000012070470C4B1A6842F001021A600021BE
:1011B00099601A6822F0847222F480321A60074A19
:1011C0005A601A6822F480221A60D960044B4FF0EA
:1011D00000629A60704700BF00380240103000245F
:1011E00000ED00E0224B9B6803F00C03042B14D0AD
:1011F000082B16D01BB11F4B1F4A1A6002E01D4B73
:101200001D4A1A601A4B9B68C3F303131B4AD15C37
:10121000184A1368CB4013607047164B184A1A607F
:10122000F0E7134B5A685B6803F03F0312F4800F3A
:1012300013D0134AB2FBF3F20D4B5B68C3F3881370
:1012400003FB02F30A4A5268C2F301420132520020
:10125000B3FBF2F3074A1360D4E7074AB2FBF3F299
:10126000034B5B68C3F3881303FB02F3EAE700BF99
:10127000003802400C0000200024F400582500082B
:1012800000127A0030B595B000240194214B1A6CFD
:1012900042F080521A641B6C03F080530193019B4F
:1012A00002941D4B1A6842F480421A601B6803F4D2
:1012B00080430293029B0123089309934FF4800318
:1012C0000F93082310934FF4A873119302251295DE
:1012D000072313930E9508A8FFF778FA0F230393BB
:1012E000049505944FF4A05306934FF4805307934D
:1012F000052103A8FFF7ECFCFFF71AFE074BA3FB41
:1013000000308009FFF726F90420FFF739F915B0FE
:1013100030BD00BF0038024000700040D34D621065
:1013200008B5FFF78BF8FFF7ADFFFFF75BFF08BDD0
:101330000B4AD36843F08073D3600A4B00225A6093
:101340001A6802F001021A601A6842F001021A607B
:101350005A6800BF00BF00BF5868801A704700BFBE
:10136000F0ED00E0001000E0F0B589B0FFF766F89E
:10137000FFF7DEFF2A48FFF721FE0523ADF81E30F8
:101380006923ADF81C30274B0693274B05930022A9
:10139000264BCDE902230022254BCDE90023254C25
:1013A0000023636063686168234EC91A3046FFF703
:1013B00005FE6368BDF81E50BDF81C2015442DB213
:1013C0006168C91A3046FFF7F9FD29461B48FFF747
:1013D000F5FD66680698059900F020FA05466168F3
:1013E000891B1748FFF7EAFD284600F0B9F90246C5
:1013F0000B461448FFF7E2FD6568DDE90201DDE90F
:10140000002300F04FF806460F466168491B0E485E
:10141000FFF7D4FD32463B460C48FFF7CFFDBEE751
:10142000682500080000A0400000D24200001440DF
:1014300000405A40001000E0742500088425000890
:1014400090250008A4250008B4250008C825000838
:10145000704708B50120FFF7ABF908BD08B5024B8E
:10146000986BFFF7B1F808BD7401002008B5024B76
:10147000586BFFF7A9F808BD740100207047FEE71C
:10148000FEE7FEE7FEE770477047704708B5FEF7D6
:10149000EFFFFFF794F808BD81F0004102E000BFC4
:1014A00083F0004330B54FEA41044FEA430594EA24
:1014B000050F08BF90EA020F1FBF54EA000C55EA5F
:1014C000020C7FEA645C7FEA655C00F0E2804FEA30
:1014D0005454D4EB5555B8BF6D420CDD2C4480EA12
:1014E000020281EA030382EA000083EA010180EA42
:1014F000020281EA0303362D88BF30BD11F0004F90
:101500004FEA01314FF4801C4CEA113102D04042C5
:1015100061EB410113F0004F4FEA03334CEA133300
:1015200002D0524263EB430394EA050F00F0A78018
:10153000A4F10104D5F1200E0DDB02FA0EFC22FA13
:1015400005F2801841F1000103FA0EF2801843FA07
:1015500005F359410EE0A5F120050EF1200E012AF8
:1015600003FA0EFC28BF4CF0020C43FA05F3C01836
:1015700051EBE37101F0004507D54FF0000EDCF1AF
:10158000000C7EEB00006EEB0101B1F5801F1BD358
:10159000B1F5001F0CD349085FEA30004FEA3C0C5C
:1015A00004F101044FEA445212F5800F80F09A8052
:1015B000BCF1004F08BF5FEA500C50F1000041EB56
:1015C000045141EA050130BD5FEA4C0C404141EB5A
:1015D000010111F4801FA4F10104E9D191F0000F81
:1015E00004BF01460020B1FA81F308BF2033A3F104
:1015F0000B03B3F120020CDA0C3208DD02F1140CFB
:10160000C2F10C0201FA0CF021FA02F10CE002F135
:101610001402D8BFC2F1200C01FA02F120FA0CFC2E
:10162000DCBF41EA0C019040E41AA2BF01EB045177
:10163000294330BD6FEA04041F3C1CDA0C340EDC75
:1016400004F11404C4F1200220FA04F001FA02F3B8
:1016500040EA030021FA04F345EA030130BDC4F176
:101660000C04C4F1200220FA02F001FA04F340EA6B
:101670000300294630BD21FA04F0294630BD94F01C
:10168000000F83F4801306BF81F480110134013D03
:101690004EE77FEA645C18BF7FEA655C29D094EA74
:1016A000050F08BF90EA020F05D054EA000C04BFF2
:1016B0001946104630BD91EA030F1EBF00210020DD
:1016C00030BD5FEA545C05D14000494128BF41F07C
:1016D000004130BD14F580043CBF01F5801130BDE0
:1016E00001F0004545F0FE4141F470014FF000006B
:1016F00030BD7FEA645C1ABF194610467FEA655C1C
:101700001CBF0B46024650EA013406BF52EA0335BD
:1017100091EA030F41F4002130BD00BF90F0000FAB
:1017200004BF0021704730B54FF4806404F13204E7
:101730004FF000054FF0000150E700BF90F0000FA0
:1017400004BF0021704730B54FF4806404F13204C7
:1017500010F0004548BF40424FF000013EE700BF97
:1017600042004FEAE2014FEA31014FEA02701FBF27
:1017700012F07F4393F07F4F81F06051704732F059
:101780007F4208BF704793F07F4F04BF41F40021B0
:10179000704730B54FF4607401F0004521F000410E
:1017A0001CE700BF50EA010208BF704730B54FF098
:1017B00000050AE050EA010208BF704730B511F099
:1017C000004502D5404261EB41014FF4806404F1D1
:1017D00032045FEA915C3FF4D8AE4FF003025FEA57
:1017E000DC0C18BF03325FEADC0C18BF033202EBDB
:1017F000DC02C2F1200300FA03FC20FA02F001FA35
:1018000003FE40EA0E0021FA02F11444BDE600BFD7
:1018100080F0004002E000BF81F0004142001FBFA5
:101820005FEA410392EA030F7FEA226C7FEA236CAE
:101830006AD04FEA1262D2EB1363C1BFD2184140A3
:1018400048404140B8BF5B42192B88BF704710F039
:10185000004F40F4000020F07F4018BF404211F0DC
:10186000004F41F4000121F07F4118BF494292EA44
:10187000030F3FD0A2F1010241FA03FC10EB0C0070
:10188000C3F1200301FA03F100F0004302D54942FD
:1018900060EB4000B0F5000F13D3B0F1807F06D3AA
:1018A00040084FEA310102F10102FE2A51D2B1F1A2
:1018B000004F40EBC25008BF20F0010040EA030097
:1018C0007047490040EB000010F4000FA2F1010244
:1018D000EDD1B0FA80FCACF1080CB2EB0C0200FACE
:1018E0000CF0AABF00EBC25052421843BCBFD0401C
:1018F0001843704792F0000F81F4000106BF80F496
:1019000000000132013BB5E74FEA41037FEA226C58
:1019100018BF7FEA236C21D092EA030F04D092F023
:10192000000F08BF0846704790EA010F1CBF002057
:10193000704712F07F4F04D1400028BF40F00040B4
:10194000704712F100723CBF00F50000704700F0D4
:10195000004343F0FE4040F4000070477FEA2262FB
:1019600016BF08467FEA23630146420206BF5FEACC
:10197000412390EA010F40F4800070474FF00003CC
:1019800004E000BF10F0004348BF40425FEA000C93
:1019900008BF704743F0964301464FF000001CE03B
:1019A00050EA010208BF70474FF000030AE000BF91
:1019B00050EA010208BF704711F0004302D54042CF
:1019C00061EB41015FEA010C02BF84460146002041
:1019D00043F0B64308BFA3F18053A3F50003BCFA5C
:1019E0008CF2083AA3EBC25310DB01FA02FC634409
:1019F00000FA02FCC2F12002BCF1004F20FA02F210
:101A000043EB020008BF20F00100704702F1200202
:101A100001FA02FCC2F1200250EA4C0021FA02F263
:101A200043EB020008BF20EADC707047014B1868E6
:101A3000704700BF10000020034613F8012B002A56
:101A4000FBD1181A0138704730B5141E05469BB0FB
:101A5000184605DA8B232B604FF0FF301BB030BDEA
:101A60004FF40273ADF80C3014BF04F1FF3323467A
:101A7000029305934FF6FF7300910491ADF80E3079
:101A800002461E9B6946284600F052F9431CBCBF23
:101A90008B232B60002CE1D0009B00221A70DDE725
:101AA00007B5009313460A46014603480068FFF74E
:101AB000CBFF03B05DF804FB1000002070477047B7
:101AC0000A44914200F1FF3300D1704710B511F87C
:101AD000014B03F8014F9142F9D110BD38B50546CD
:101AE000002945D051F8043C0C1F002BB8BFE41866
:101AF00000F020FC1F4A1368104633B9636014607D
:101B00002846BDE8384000F01BBCA3420CD9216830
:101B10006218934204BF1A685B68636004BF52187E
:101B200022600460ECE713465A680AB1A242FAD96F
:101B300019685818A0420BD12068014458188242F5
:101B40001960DDD1106852685A6001441960D7E706
:101B500002D90C232B60D3E7206821188A4204BFE6
:101B600011685268626004BF091821605C60C7E7B1
:101B700038BD00BF04010020F8B5CD1C25F00305D9
:101B800008350C2D38BF0C25002D064601DBA94277
:101B900003D90C2333600020F8BD00F0CBFB2149B2
:101BA0000A6814469CB9204F3B6823B92146304649
:101BB00000F040FB38602946304600F03BFB431CF8
:101BC00023D10C233360304600F0BAFBE3E72368EF
:101BD0005B1B17D40B2B03D923601C44256004E046
:101BE0006368A2420CBF0B605360304600F0A8FB54
:101BF00004F10B00231D20F00700C21ACCD01B1AE1
:101C0000A350C9E722466468CCE7C41C24F003044F
:101C1000A042E3D0211A304600F00CFB0130DDD1A8
:101C2000CFE700BF0401002008010020F8B50746F7
:101C300014460E4621B91146BDE8F840FFF79CBF97
:101C400022B9FFF74BFF25462846F8BD00F07EFB82
:101C5000A0420FD221463846FFF78EFF05460028E6
:101C6000F2D031462246FFF72BFF31463846FFF7C8
:101C700035FFE9E73546E7E72DE9F0478E689E42F4
:101C800082460C469146984638D8B1F80CC01CF4F0
:101C9000906F31D062692568096902EB42026F1AC0
:101CA00002EBD272013355103B449D4238BF1D46B2
:101CB0001CF4806F30D02946FFF75EFF064650B90E
:101CC0000C23CAF80030A38943F04003A3814FF0EE
:101CD000FF30BDE8F0873A462169FFF7F1FEA3899E
:101CE00023F4906343F08003A381266165613E4441
:101CF000ED1B2660A5604646464500D9464632465D
:101D00004946206800F0FCFAA3689B1BA360236887
:101D10001E4426600020DCE72A46FFF787FF0646C0
:101D20000028E2D121695046FFF7D8FEC8E700003D
:101D30002DE9F04F1E468B891B069DB007460D46C8
:101D400014460ED50B6963B94021FFF715FF2860D3
:101D5000286120B90C233B604FF0FF30C9E04023DD
:101D60006B610023099320238DF82930DFF89C91C3
:101D7000039630238DF82A304FF0010A23461E4681
:101D800013F8012B0AB1252AF9D1B6EB040B0BD0BD
:101D90005B46224629463846FFF76EFF013000F0C9
:101DA000A380099B5B4409933378002B00F09C804F
:101DB00000234FF0FF32CDE905230136049307934A
:101DC0008DF853301A933446052214F8011B4F48FE
:101DD00000F046FA049BC0B9D90644BF20228DF812
:101DE00053201A0744BF2B228DF8532032782A2A19
:101DF00013D0079A344600200A26214611F8013BE9
:101E0000303B092B4BD970B914E0A0EB09000AFA5A
:101E100000F0184304902646D5E7039A111D126876
:101E20000391002A01DB079204E0524243F00203CF
:101E30000792049323782E2B0CD163782A2B33D16D
:101E4000039B1A1D1B680392002BB8BF4FF0FF3392
:101E5000023405932E4E21780322304600F000FA1A
:101E600038B14023801B03FA00F0049B0343013484
:101E7000049314F8011B27488DF82810062200F05F
:101E8000EFF9002838D0244B13BB039B073323F012
:101E9000070308330393099B434409936EE706FB4A
:101EA000023201200C46A8E70023013405931946AD
:101EB0000A26204610F8012B303A092A03D9002BB4
:101EC000C8D00591C6E706FB012101230446F0E7CF
:101ED00003AB00932A46114B04A93846AFF30080A8
:101EE000B0F1FF3F8046D6D1AB895B063FF534AFFA
:101EF00009981DB0BDE8F08F03AB00932A46074B4D
:101F000004A9384600F082F8EAE700BF3826000846
:101F10003E2600084226000800000000791C000848
:101F20002DE9F04791461F468A680B69DDF820804D
:101F30009342B8BF1346C9F8003091F843200646D3
:101F40000C4612B10133C9F800302368990642BF2C
:101F5000D9F800300233C9F80030256815F00605BD
:101F600007D104F1190AE368D9F800209B1AAB42A3
:101F700028DC94F843302268003318BF012392060E
:101F80002DD404F1430239463046C047013020D0F9
:101F90002368E568D9F8002003F00603042B08BF86
:101FA000AD1AA36822690CBF25EAE57500259342A6
:101FB000C4BF9B1AED184FF000091A344D451AD1D1
:101FC000002008E00123524639463046C047013020
:101FD00003D14FF0FF30BDE8F0870135C3E7E118CA
:101FE0005A1C302081F84300224494F8451082F8AE
:101FF00043100233C5E70123224639463046C04725
:102000000130E6D009F10109D8E700002DE9F043DD
:1020100006460C4601F14300097E85B06E299846BC
:1020200017460C9B00F0BA8024D8632939D00AD80F
:10203000002900F0C380582900F0918004F1420586
:1020400084F8421035E0642901D06929F6D1256869
:102050001A6815F0800F02F104012CD01268196083
:10206000002A03DA2D23524284F84330DFF8BCC142
:102070000A233FE0732900F0A58008D86F2921D0FA
:102080007029DBD1226842F02002226003E075292A
:1020900018D07829D2D1782284F84520DFF890C171
:1020A00061E01A68111D1960136884F8423004F168
:1020B0004205012393E01268196015F0400F18BF24
:1020C00012B2CDE7D4F800C01A681CF0800F02F1FC
:1020D00004051D6001D0126803E01CF0400FFAD027
:1020E0001288DFF848C16F290CBF08230A2300219A
:1020F00084F843106568A560002DA2BF216821F017
:10210000040121600AB9002D46D00546B2FBF3F167
:1021100003FB112E93421CF80EE005F801ED39D9AE
:10212000082B0BD12368DA0708D5236962689A4225
:10213000DEBF302305F8013C05F1FF35401B20616F
:10214000CDF800803B4603AA21463046FFF7E8FE63
:10215000013049D14FF0FF3005B0BDE8F083DFF822
:10216000CCC084F845101D68216855F8042B1D600B
:102170000D060BD5CD0744BF41F0200121601AB9EF
:10218000236823F0200323601023B0E74B0648BFE9
:1021900092B2EFE70A46B9E70546C1E71A68D4F8F4
:1021A00000C06169151D1D601CF0800F136801D00F
:1021B000196003E01CF0400FFAD01980002323615E
:1021C0000546BDE71A68111D19601568626800218F
:1021D000284600F045F808B1401B60606368236141
:1021E000002384F84330ABE723692A46394630465A
:1021F000C0470130AED023689B0713D4E068039B2F
:102200009842B8BF1846A7E701234A4639463046E8
:10221000C04701309ED00135E368039A9B1AAB4258
:10222000F2DCEBE7002504F11909F5E7492600087F
:102230005A26000838B5064C002305460846236098
:10224000FEF788FE431C02D1236803B12B6038BD22
:10225000100100200000000000000000000000004D
:1022600001F0FF01102A2BDB10F0070F08D010F847
:10227000013B013A8B422DD010F0070F42B3F6D14B
:10228000F0B441EA012141EA014122F007047FF064
:1022900000070023F0E80256083C85EA010586EABB
:1022A000010685FA47F5A3FA87F586FA47F6A5FAF7
:1022B00087F68EB9EED1F0BC01F0FF0102F0070203
:1022C00032B110F8013B013A83EA010313B1F8D1AE
:1022D0000020704701387047002D06BF354603388F
:1022E000073815F0010F07D1013015F4807F02BFC8
:1022F000013015F4C03F0130F0BC0138704700BF19
:10230000884210B501EB020302D983421C4607D86C
:10231000421E994208D011F8014B02F8014FF8E72C
:1023200083189A1A9A4200D110BD14F8011D03F8BF
:10233000011DF7E70148FFF7C1BB00BFCC02002039
:102340000148FFF7BCBB00BFCC02002051F8043CA1
:10235000181F002BBCBF0B58C01870472E2E2F73B0
:10236000797374656D2F7372632F73746D33326676
:10237000342D68616C2F73746D3332663478785FF6
:1023800068616C5F636F727465782E630000000093
:10239000000000000102030401020304060708090B
:1023A0002E2E2F73797374656D2F7372632F737470
:1023B0006D333266342D68616C2F73746D33326601
:1023C0003478785F68616C5F7263632E630000002D
:1023D00061626F727428292C2065786974696E6750
:1023E0002E2E2E006173736572745F706172616D61
:1023F0002829206661696C65643A2066696C6520ED
:10240000222573222C206C696E652025640A000049
:10241000537461636B206672616D653A0A00000057
:10242000205230203D2020253038580A000000007E
:10243000205231203D2020253038580A000000006D
:10244000205232203D2020253038580A000000005C
:10245000205233203D2020253038580A000000004B
:1024600020523132203D20253038580A000000002B
:10247000204C52203D2020253038580A0000000012
:10248000205043203D2020253038580A000000000D
:1024900020505352203D20253038580A00000000BB
:1024A0004653522F4641523A0A00000020434653F9
:1024B00052203D2020253038580A0000204846533D
:1024C00052203D2020253038580A00002044465331
:1024D00052203D2020253038580A00002041465324
:1024E00052203D2020253038580A0000204D4D460E
:1024F0004152203D20253038580A000020424641F4
:1025000052203D2020253038580A00004D69736361
:102510000A000000204C522F4558435F5245545545
:10252000524E3D20253038580A0000005B48617249
:10253000644661756C745D0A000000005B4275734F
:102540004661756C745D0A005B5573616765466131
:10255000756C745D0A0000000000000000000000BF
:102560000102030406070809496E6974204F4B0AEB
:1025700000000000696E74206379636C653A202561
:10258000640A0000696E74313620633D25640A00D8
:10259000666C6F6174203332206379636C653A2016
:1025A00025640A00666C6F617420333220633D2518
:1025B000660A0000666C6F617420363420637963AC
:1025C0006C653A2025640A00666C6F6174203634AD
:1025D00020633D25660A00000000000000000000A6
:1025E00000000000000000000000000000000000EB
:1025F00000000000000000000000000000000000DB
:1026000000000000000000000000000000000000CA
:1026100000000000000000000000000000000000BA
:1026200000000000000000000000000000000000AA
:102630000000000000000000232D302B2000686CFB
:102640004C006566674546470030313233343536D5
:10265000373839414243444546003031323334350E
:0B26600036373839616263646566003C
:10266C007856341280000020000000000024F40092
:10267C001400002000000000F825000818260008AF
:10268C00D825000800000000000000000000000039
:10269C00000000000000000000000000000000002E
:1026AC00000000000000000000000000000000001E
:1026BC00000000000000000000000000000000000E
:1026CC0000000000000000000000000000000000FE
:0826DC00000000003254769862
:040000050800018965
:00000001FF
